{
  "_format": "hh-sol-artifact-1",
  "contractName": "PoolManager",
  "sourceName": "contracts/PoolManager.sol",
  "abi": [
    {
      "inputs": [],
      "stateMutability": "nonpayable",
      "type": "constructor"
    },
    {
      "inputs": [
        {
          "internalType": "address",
          "name": "target",
          "type": "address"
        }
      ],
      "name": "AddressEmptyCode",
      "type": "error"
    },
    {
      "inputs": [
        {
          "internalType": "address",
          "name": "implementation",
          "type": "address"
        }
      ],
      "name": "ERC1967InvalidImplementation",
      "type": "error"
    },
    {
      "inputs": [],
      "name": "ERC1967NonPayable",
      "type": "error"
    },
    {
      "inputs": [],
      "name": "FailedInnerCall",
      "type": "error"
    },
    {
      "inputs": [],
      "name": "InvalidInitialization",
      "type": "error"
    },
    {
      "inputs": [],
      "name": "NotInitializing",
      "type": "error"
    },
    {
      "inputs": [
        {
          "internalType": "address",
          "name": "owner",
          "type": "address"
        }
      ],
      "name": "OwnableInvalidOwner",
      "type": "error"
    },
    {
      "inputs": [
        {
          "internalType": "address",
          "name": "account",
          "type": "address"
        }
      ],
      "name": "OwnableUnauthorizedAccount",
      "type": "error"
    },
    {
      "inputs": [],
      "name": "ReentrancyGuardReentrantCall",
      "type": "error"
    },
    {
      "inputs": [],
      "name": "UUPSUnauthorizedCallContext",
      "type": "error"
    },
    {
      "inputs": [
        {
          "internalType": "bytes32",
          "name": "slot",
          "type": "bytes32"
        }
      ],
      "name": "UUPSUnsupportedProxiableUUID",
      "type": "error"
    },
    {
      "anonymous": false,
      "inputs": [
        {
          "indexed": true,
          "internalType": "address",
          "name": "busd",
          "type": "address"
        },
        {
          "indexed": true,
          "internalType": "address",
          "name": "usdt",
          "type": "address"
        },
        {
          "indexed": true,
          "internalType": "address",
          "name": "usdc",
          "type": "address"
        }
      ],
      "name": "ContractInitialized",
      "type": "event"
    },
    {
      "anonymous": false,
      "inputs": [
        {
          "indexed": true,
          "internalType": "address",
          "name": "token",
          "type": "address"
        },
        {
          "indexed": false,
          "internalType": "uint256",
          "name": "amount",
          "type": "uint256"
        }
      ],
      "name": "EmergencyWithdrawal",
      "type": "event"
    },
    {
      "anonymous": false,
      "inputs": [
        {
          "indexed": true,
          "internalType": "address",
          "name": "token",
          "type": "address"
        },
        {
          "indexed": false,
          "internalType": "uint256",
          "name": "amount",
          "type": "uint256"
        }
      ],
      "name": "FundsDeposited",
      "type": "event"
    },
    {
      "anonymous": false,
      "inputs": [
        {
          "indexed": true,
          "internalType": "address",
          "name": "token",
          "type": "address"
        },
        {
          "indexed": false,
          "internalType": "uint256",
          "name": "amount",
          "type": "uint256"
        },
        {
          "indexed": true,
          "internalType": "address",
          "name": "recipient",
          "type": "address"
        }
      ],
      "name": "FundsWithdrawn",
      "type": "event"
    },
    {
      "anonymous": false,
      "inputs": [
        {
          "indexed": false,
          "internalType": "uint64",
          "name": "version",
          "type": "uint64"
        }
      ],
      "name": "Initialized",
      "type": "event"
    },
    {
      "anonymous": false,
      "inputs": [
        {
          "indexed": true,
          "internalType": "address",
          "name": "previousOwner",
          "type": "address"
        },
        {
          "indexed": true,
          "internalType": "address",
          "name": "newOwner",
          "type": "address"
        }
      ],
      "name": "OwnershipTransferred",
      "type": "event"
    },
    {
      "anonymous": false,
      "inputs": [
        {
          "indexed": true,
          "internalType": "address",
          "name": "token",
          "type": "address"
        },
        {
          "indexed": false,
          "internalType": "uint256",
          "name": "newBalance",
          "type": "uint256"
        }
      ],
      "name": "PoolBalanceUpdated",
      "type": "event"
    },
    {
      "anonymous": false,
      "inputs": [
        {
          "indexed": true,
          "internalType": "address",
          "name": "implementation",
          "type": "address"
        }
      ],
      "name": "Upgraded",
      "type": "event"
    },
    {
      "inputs": [],
      "name": "BUSD",
      "outputs": [
        {
          "internalType": "address",
          "name": "",
          "type": "address"
        }
      ],
      "stateMutability": "view",
      "type": "function"
    },
    {
      "inputs": [],
      "name": "NXM",
      "outputs": [
        {
          "internalType": "address",
          "name": "",
          "type": "address"
        }
      ],
      "stateMutability": "view",
      "type": "function"
    },
    {
      "inputs": [],
      "name": "UPGRADE_INTERFACE_VERSION",
      "outputs": [
        {
          "internalType": "string",
          "name": "",
          "type": "string"
        }
      ],
      "stateMutability": "view",
      "type": "function"
    },
    {
      "inputs": [],
      "name": "USDC",
      "outputs": [
        {
          "internalType": "address",
          "name": "",
          "type": "address"
        }
      ],
      "stateMutability": "view",
      "type": "function"
    },
    {
      "inputs": [],
      "name": "USDT",
      "outputs": [
        {
          "internalType": "address",
          "name": "",
          "type": "address"
        }
      ],
      "stateMutability": "view",
      "type": "function"
    },
    {
      "inputs": [],
      "name": "bnbBalance",
      "outputs": [
        {
          "internalType": "uint256",
          "name": "",
          "type": "uint256"
        }
      ],
      "stateMutability": "view",
      "type": "function"
    },
    {
      "inputs": [
        {
          "internalType": "address",
          "name": "_token",
          "type": "address"
        },
        {
          "internalType": "uint256",
          "name": "_amount",
          "type": "uint256"
        }
      ],
      "name": "depositTokens",
      "outputs": [],
      "stateMutability": "nonpayable",
      "type": "function"
    },
    {
      "inputs": [
        {
          "internalType": "address",
          "name": "_token",
          "type": "address"
        }
      ],
      "name": "emergencyWithdraw",
      "outputs": [],
      "stateMutability": "nonpayable",
      "type": "function"
    },
    {
      "inputs": [
        {
          "internalType": "address",
          "name": "_token",
          "type": "address"
        }
      ],
      "name": "getPoolBalance",
      "outputs": [
        {
          "internalType": "uint256",
          "name": "",
          "type": "uint256"
        }
      ],
      "stateMutability": "view",
      "type": "function"
    },
    {
      "inputs": [],
      "name": "getTotalPoolValue",
      "outputs": [
        {
          "internalType": "uint256",
          "name": "bnb",
          "type": "uint256"
        },
        {
          "internalType": "uint256",
          "name": "busd",
          "type": "uint256"
        },
        {
          "internalType": "uint256",
          "name": "usdt",
          "type": "uint256"
        },
        {
          "internalType": "uint256",
          "name": "usdc",
          "type": "uint256"
        },
        {
          "internalType": "uint256",
          "name": "nxm",
          "type": "uint256"
        }
      ],
      "stateMutability": "view",
      "type": "function"
    },
    {
      "inputs": [],
      "name": "getWithdrawalHistory",
      "outputs": [
        {
          "components": [
            {
              "internalType": "address",
              "name": "token",
              "type": "address"
            },
            {
              "internalType": "uint256",
              "name": "amount",
              "type": "uint256"
            },
            {
              "internalType": "uint256",
              "name": "timestamp",
              "type": "uint256"
            },
            {
              "internalType": "address",
              "name": "recipient",
              "type": "address"
            }
          ],
          "internalType": "struct PoolManager.Withdrawal[]",
          "name": "",
          "type": "tuple[]"
        }
      ],
      "stateMutability": "view",
      "type": "function"
    },
    {
      "inputs": [
        {
          "internalType": "address",
          "name": "_busd",
          "type": "address"
        },
        {
          "internalType": "address",
          "name": "_usdt",
          "type": "address"
        },
        {
          "internalType": "address",
          "name": "_usdc",
          "type": "address"
        },
        {
          "internalType": "address",
          "name": "_nxm",
          "type": "address"
        }
      ],
      "name": "initialize",
      "outputs": [],
      "stateMutability": "nonpayable",
      "type": "function"
    },
    {
      "inputs": [],
      "name": "owner",
      "outputs": [
        {
          "internalType": "address",
          "name": "",
          "type": "address"
        }
      ],
      "stateMutability": "view",
      "type": "function"
    },
    {
      "inputs": [
        {
          "internalType": "address",
          "name": "",
          "type": "address"
        }
      ],
      "name": "poolBalances",
      "outputs": [
        {
          "internalType": "uint256",
          "name": "",
          "type": "uint256"
        }
      ],
      "stateMutability": "view",
      "type": "function"
    },
    {
      "inputs": [],
      "name": "proxiableUUID",
      "outputs": [
        {
          "internalType": "bytes32",
          "name": "",
          "type": "bytes32"
        }
      ],
      "stateMutability": "view",
      "type": "function"
    },
    {
      "inputs": [],
      "name": "renounceOwnership",
      "outputs": [],
      "stateMutability": "nonpayable",
      "type": "function"
    },
    {
      "inputs": [
        {
          "internalType": "address",
          "name": "newOwner",
          "type": "address"
        }
      ],
      "name": "transferOwnership",
      "outputs": [],
      "stateMutability": "nonpayable",
      "type": "function"
    },
    {
      "inputs": [
        {
          "internalType": "address",
          "name": "newImplementation",
          "type": "address"
        },
        {
          "internalType": "bytes",
          "name": "data",
          "type": "bytes"
        }
      ],
      "name": "upgradeToAndCall",
      "outputs": [],
      "stateMutability": "payable",
      "type": "function"
    },
    {
      "inputs": [
        {
          "internalType": "uint256",
          "name": "_amount",
          "type": "uint256"
        }
      ],
      "name": "withdrawBNB",
      "outputs": [],
      "stateMutability": "nonpayable",
      "type": "function"
    },
    {
      "inputs": [
        {
          "internalType": "address",
          "name": "_token",
          "type": "address"
        },
        {
          "internalType": "uint256",
          "name": "_amount",
          "type": "uint256"
        }
      ],
      "name": "withdrawTokens",
      "outputs": [],
      "stateMutability": "nonpayable",
      "type": "function"
    },
    {
      "inputs": [
        {
          "internalType": "uint256",
          "name": "",
          "type": "uint256"
        }
      ],
      "name": "withdrawalHistory",
      "outputs": [
        {
          "internalType": "address",
          "name": "token",
          "type": "address"
        },
        {
          "internalType": "uint256",
          "name": "amount",
          "type": "uint256"
        },
        {
          "internalType": "uint256",
          "name": "timestamp",
          "type": "uint256"
        },
        {
          "internalType": "address",
          "name": "recipient",
          "type": "address"
        }
      ],
      "stateMutability": "view",
      "type": "function"
    },
    {
      "stateMutability": "payable",
      "type": "receive"
    }
  ],
  "bytecode": "0x60a06040523060805234801561001457600080fd5b50338061003b57604051631e4fbdf760e01b81526000600482015260240160405180910390fd5b6100448161004e565b506001805561009e565b600080546001600160a01b038381166001600160a01b0319831681178455604051919092169283917f8be0079c531659141344cd1fd0a4f28419497f9722a3daafe3b4186f6b6457e09190a35050565b608051611a676100c7600039600081816113410152818161136a01526114a70152611a676000f3fe60806040526004361061012e5760003560e01c80639155ccc8116100ab578063caeadc071161006f578063caeadc07146103e3578063d013cbe214610403578063d28682ea14610419578063d800b9bd14610439578063f2fde38b14610488578063f8c8765e146104a857600080fd5b80639155ccc8146102bf578063a14ed18a146102ec578063ad3cb1cc14610363578063c0894cfa146103a1578063c54e44eb146103c357600080fd5b806366168bd7116100f257806366168bd7146102355780636ff1c9bc14610255578063715018a61461027557806389a302711461028a5780638da5cb5b146102aa57600080fd5b806306b091f914610187578063127f4b2e146101a9578063484f4ea9146101c95780634f1ef286146101ff57806352d1902d1461021257600080fd5b366101825734600760008282546101459190611713565b90915550506040513481526000907f543ba50a5eec5e6178218e364b1d0f396157b3c8fa278522c2cb7fd99407d4749060200160405180910390a2005b600080fd5b34801561019357600080fd5b506101a76101a2366004611742565b6104c8565b005b3480156101b557600080fd5b506101a76101c436600461176c565b610794565b3480156101d557600080fd5b506002546101e9906001600160a01b031681565b6040516101f69190611785565b60405180910390f35b6101a761020d3660046117af565b610a00565b34801561021e57600080fd5b50610227610a1b565b6040519081526020016101f6565b34801561024157600080fd5b506101a7610250366004611742565b610a38565b34801561026157600080fd5b506101a7610270366004611871565b610bfb565b34801561028157600080fd5b506101a7610eb5565b34801561029657600080fd5b506004546101e9906001600160a01b031681565b3480156102b657600080fd5b506101e9610ec9565b3480156102cb57600080fd5b506102276102da366004611871565b60066020526000908152604090205481565b3480156102f857600080fd5b506007546002546001600160a01b0390811660009081526006602090815260408083205460035485168452818420546004548616855282852054600554909616855293829020548251968752928601528401919091526060830191909152608082015260a0016101f6565b34801561036f57600080fd5b50610394604051806040016040528060058152602001640352e302e360dc1b81525081565b6040516101f691906118b0565b3480156103ad57600080fd5b506103b6610ed8565b6040516101f691906118e3565b3480156103cf57600080fd5b506003546101e9906001600160a01b031681565b3480156103ef57600080fd5b506005546101e9906001600160a01b031681565b34801561040f57600080fd5b5061022760075481565b34801561042557600080fd5b50610227610434366004611871565b610f67565b34801561044557600080fd5b5061045961045436600461176c565b610f9b565b604080516001600160a01b039586168152602081019490945283019190915290911660608201526080016101f6565b34801561049457600080fd5b506101a76104a3366004611871565b610fe1565b3480156104b457600080fd5b506101a76104c3366004611953565b61101c565b6104d06112da565b6104d861130c565b6001600160a01b0382166000908152600660205260409020548111156105455760405162461bcd60e51b815260206004820152601a60248201527f496e73756666696369656e7420746f6b656e2062616c616e636500000000000060448201526064015b60405180910390fd5b6001600160a01b0382166000908152600660205260408120805483929061056d9084906119a7565b9091555050604080516080810182526001600160a01b038085168083526020830185815242948401948552336060850190815260088054600181018255600091909152945160049095027ff3f7a9fe364faab93b216da50a3214154f22a0a2b415b23a84c8169e8b636ee3810180549686166001600160a01b031997881617905591517ff3f7a9fe364faab93b216da50a3214154f22a0a2b415b23a84c8169e8b636ee483015594517ff3f7a9fe364faab93b216da50a3214154f22a0a2b415b23a84c8169e8b636ee582015593517ff3f7a9fe364faab93b216da50a3214154f22a0a2b415b23a84c8169e8b636ee6909401805494909216939092169290921790915563a9059cbb61067e610ec9565b6040516001600160e01b031960e084901b1681526001600160a01b039091166004820152602481018490526044016020604051808303816000875af11580156106cb573d6000803e3d6000fd5b505050506040513d601f19601f820116820180604052508101906106ef91906119ba565b6107335760405162461bcd60e51b8152602060048201526015602482015274151bdad95b881d1c985b9cd9995c8819985a5b1959605a1b604482015260640161053c565b61073b610ec9565b6001600160a01b0316826001600160a01b03167fe9171aeff46c37ab955b8aff908e14ae9732bd06634fa131226cfe5c25bfd2fb8360405161077f91815260200190565b60405180910390a361079060018055565b5050565b61079c6112da565b6107a461130c565b6007548111156107f15760405162461bcd60e51b8152602060048201526018602482015277496e73756666696369656e7420424e422062616c616e636560401b604482015260640161053c565b806007600082825461080391906119a7565b90915550506040805160808101825260008082526020820184815242938301938452336060840190815260088054600181018255908452935160049094027ff3f7a9fe364faab93b216da50a3214154f22a0a2b415b23a84c8169e8b636ee3810180546001600160a01b039687166001600160a01b03199182161790915592517ff3f7a9fe364faab93b216da50a3214154f22a0a2b415b23a84c8169e8b636ee482015594517ff3f7a9fe364faab93b216da50a3214154f22a0a2b415b23a84c8169e8b636ee5860155517ff3f7a9fe364faab93b216da50a3214154f22a0a2b415b23a84c8169e8b636ee69094018054949093169316929092179055610908610ec9565b6001600160a01b03168260405160006040518083038185875af1925050503d8060008114610952576040519150601f19603f3d011682016040523d82523d6000602084013e610957565b606091505b505090508061099e5760405162461bcd60e51b8152602060048201526013602482015272109390881d1c985b9cd9995c8819985a5b1959606a1b604482015260640161053c565b6109a6610ec9565b6001600160a01b031660006001600160a01b03167fe9171aeff46c37ab955b8aff908e14ae9732bd06634fa131226cfe5c25bfd2fb846040516109eb91815260200190565b60405180910390a3506109fd60018055565b50565b610a08611336565b610a11826113db565b61079082826113e3565b6000610a2561149c565b50600080516020611a1283398151915290565b610a406112da565b6001600160a01b038216610a865760405162461bcd60e51b815260206004820152600d60248201526c24b73b30b634b2103a37b5b2b760991b604482015260640161053c565b60008111610ac75760405162461bcd60e51b815260206004820152600e60248201526d125b9d985b1a5908185b5bdd5b9d60921b604482015260640161053c565b6040516323b872dd60e01b8152336004820152306024820152604481018290526001600160a01b038316906323b872dd906064016020604051808303816000875af1158015610b1a573d6000803e3d6000fd5b505050506040513d601f19601f82011682018060405250810190610b3e91906119ba565b506001600160a01b03821660009081526006602052604081208054839290610b67908490611713565b90915550506040518181526001600160a01b038316907f543ba50a5eec5e6178218e364b1d0f396157b3c8fa278522c2cb7fd99407d4749060200160405180910390a26001600160a01b0382166000818152600660209081526040918290205491519182527f13d3b6fb9eef3c3569ec7a077fb67c721593d207bae7357c28027a37d07b0340910160405180910390a25050565b610c036112da565b610c0b61130c565b6001600160a01b038116610d0757600060078190554790610c2a610ec9565b6001600160a01b03168260405160006040518083038185875af1925050503d8060008114610c74576040519150601f19603f3d011682016040523d82523d6000602084013e610c79565b606091505b5050905080610cca5760405162461bcd60e51b815260206004820152601f60248201527f456d657267656e637920424e42207769746864726177616c206661696c656400604482015260640161053c565b6040518281526000907f23d6711a1d031134a36921253c75aa59e967d38e369ac625992824315e204f209060200160405180910390a25050610eac565b6040516370a0823160e01b81526000906001600160a01b038316906370a0823190610d36903090600401611785565b602060405180830381865afa158015610d53573d6000803e3d6000fd5b505050506040513d601f19601f82011682018060405250810190610d7791906119dc565b6001600160a01b03831660008181526006602052604081205590915063a9059cbb610da0610ec9565b6040516001600160e01b031960e084901b1681526001600160a01b039091166004820152602481018490526044016020604051808303816000875af1158015610ded573d6000803e3d6000fd5b505050506040513d601f19601f82011682018060405250810190610e1191906119ba565b610e675760405162461bcd60e51b815260206004820152602160248201527f456d657267656e637920746f6b656e207769746864726177616c206661696c656044820152601960fa1b606482015260840161053c565b816001600160a01b03167f23d6711a1d031134a36921253c75aa59e967d38e369ac625992824315e204f2082604051610ea291815260200190565b60405180910390a2505b6109fd60018055565b610ebd6112da565b610ec760006114e5565b565b6000546001600160a01b031690565b60606008805480602002602001604051908101604052809291908181526020016000905b82821015610f5e576000848152602090819020604080516080810182526004860290920180546001600160a01b039081168452600180830154858701526002830154938501939093526003909101541660608301529083529092019101610efc565b50505050905090565b60006001600160a01b038216610f7f57505060075490565b506001600160a01b031660009081526006602052604090205490565b60088181548110610fab57600080fd5b600091825260209091206004909102018054600182015460028301546003909301546001600160a01b0392831694509092911684565b610fe96112da565b6001600160a01b038116611013576000604051631e4fbdf760e01b815260040161053c9190611785565b6109fd816114e5565b7ff0c57e16840df040f15088dc2f81fe391c3923bec73e23a9662efc9c229c6a008054600160401b810460ff16159067ffffffffffffffff166000811580156110625750825b905060008267ffffffffffffffff16600114801561107f5750303b155b90508115801561108d575080155b156110ab5760405163f92ee8a960e01b815260040160405180910390fd5b845467ffffffffffffffff1916600117855583156110d557845460ff60401b1916600160401b1785555b6110dd6112da565b6001600160a01b03891661112a5760405162461bcd60e51b8152602060048201526014602482015273496e76616c69642042555344206164647265737360601b604482015260640161053c565b6001600160a01b0388166111775760405162461bcd60e51b8152602060048201526014602482015273496e76616c69642055534454206164647265737360601b604482015260640161053c565b6001600160a01b0387166111c45760405162461bcd60e51b8152602060048201526014602482015273496e76616c69642055534443206164647265737360601b604482015260640161053c565b6001600160a01b0386166112105760405162461bcd60e51b8152602060048201526013602482015272496e76616c6964204e584d206164647265737360681b604482015260640161053c565b600280546001600160a01b03199081166001600160a01b038c81169182179093556003805483168c85169081179091556004805484168c861690811790915560058054909416948b16949094179092556040517f4ca662a5f1f012e4d740b256559dce10a6b72cdec96be0142f5e2eb49dd37a6e90600090a483156112cf57845460ff60401b19168555604051600181527fc7f505b2f371ae2175ee4913f4499e1f2633a7b5936321eed1cdaeb6115181d29060200160405180910390a15b505050505050505050565b336112e3610ec9565b6001600160a01b031614610ec7573360405163118cdaa760e01b815260040161053c9190611785565b60026001540361132f57604051633ee5aeb560e01b815260040160405180910390fd5b6002600155565b306001600160a01b037f00000000000000000000000000000000000000000000000000000000000000001614806113bd57507f00000000000000000000000000000000000000000000000000000000000000006001600160a01b03166113b1600080516020611a12833981519152546001600160a01b031690565b6001600160a01b031614155b15610ec75760405163703e46dd60e11b815260040160405180910390fd5b6109fd6112da565b816001600160a01b03166352d1902d6040518163ffffffff1660e01b8152600401602060405180830381865afa92505050801561143d575060408051601f3d908101601f1916820190925261143a918101906119dc565b60015b61145c5781604051634c9c8ce360e01b815260040161053c9190611785565b600080516020611a12833981519152811461148d57604051632a87526960e21b81526004810182905260240161053c565b6114978383611535565b505050565b306001600160a01b037f00000000000000000000000000000000000000000000000000000000000000001614610ec75760405163703e46dd60e11b815260040160405180910390fd5b600080546001600160a01b038381166001600160a01b0319831681178455604051919092169283917f8be0079c531659141344cd1fd0a4f28419497f9722a3daafe3b4186f6b6457e09190a35050565b61153e8261158b565b6040516001600160a01b038316907fbc7cd75a20ee27fd9adebab32041f755214dbc6bffa90cc0225b39da2e5c2d3b90600090a28051156115835761149782826115e7565b61079061165f565b806001600160a01b03163b6000036115b85780604051634c9c8ce360e01b815260040161053c9190611785565b600080516020611a1283398151915280546001600160a01b0319166001600160a01b0392909216919091179055565b6060600080846001600160a01b03168460405161160491906119f5565b600060405180830381855af49150503d806000811461163f576040519150601f19603f3d011682016040523d82523d6000602084013e611644565b606091505b509150915061165485838361167e565b925050505b92915050565b3415610ec75760405163b398979f60e01b815260040160405180910390fd5b6060826116935761168e826116d4565b6116cd565b81511580156116aa57506001600160a01b0384163b155b156116ca5783604051639996b31560e01b815260040161053c9190611785565b50805b9392505050565b8051156116e45780518082602001fd5b604051630a12f52160e11b815260040160405180910390fd5b634e487b7160e01b600052601160045260246000fd5b80820180821115611659576116596116fd565b80356001600160a01b038116811461173d57600080fd5b919050565b6000806040838503121561175557600080fd5b61175e83611726565b946020939093013593505050565b60006020828403121561177e57600080fd5b5035919050565b6001600160a01b0391909116815260200190565b634e487b7160e01b600052604160045260246000fd5b600080604083850312156117c257600080fd5b6117cb83611726565b9150602083013567ffffffffffffffff808211156117e857600080fd5b818501915085601f8301126117fc57600080fd5b81358181111561180e5761180e611799565b604051601f8201601f19908116603f0116810190838211818310171561183657611836611799565b8160405282815288602084870101111561184f57600080fd5b8260208601602083013760006020848301015280955050505050509250929050565b60006020828403121561188357600080fd5b6116cd82611726565b60005b838110156118a757818101518382015260200161188f565b50506000910152565b60208152600082518060208401526118cf81604085016020870161188c565b601f01601f19169190910160400192915050565b602080825282518282018190526000919060409081850190868401855b8281101561194657815180516001600160a01b03908116865287820151888701528682015187870152606091820151169085015260809093019290850190600101611900565b5091979650505050505050565b6000806000806080858703121561196957600080fd5b61197285611726565b935061198060208601611726565b925061198e60408601611726565b915061199c60608601611726565b905092959194509250565b81810381811115611659576116596116fd565b6000602082840312156119cc57600080fd5b815180151581146116cd57600080fd5b6000602082840312156119ee57600080fd5b5051919050565b60008251611a0781846020870161188c565b919091019291505056fe360894a13ba1a3210667c828492db98dca3e2076cc3735a920a3ca505d382bbca2646970667358221220867041afaf65727960144f6d7663b0b806b0082538fe77c6adfa6d6950cf73f164736f6c63430008140033",
  "linkReferences": {},
  "deployedLinkReferences": {}
}