{
  "_format": "hh-sol-artifact-1",
  "contractName": "ROIManager",
  "sourceName": "contracts/ROIManager.sol",
  "abi": [
    {
      "inputs": [],
      "stateMutability": "nonpayable",
      "type": "constructor"
    },
    {
      "inputs": [
        {
          "internalType": "address",
          "name": "target",
          "type": "address"
        }
      ],
      "name": "AddressEmptyCode",
      "type": "error"
    },
    {
      "inputs": [
        {
          "internalType": "address",
          "name": "implementation",
          "type": "address"
        }
      ],
      "name": "ERC1967InvalidImplementation",
      "type": "error"
    },
    {
      "inputs": [],
      "name": "ERC1967NonPayable",
      "type": "error"
    },
    {
      "inputs": [],
      "name": "FailedInnerCall",
      "type": "error"
    },
    {
      "inputs": [],
      "name": "InvalidInitialization",
      "type": "error"
    },
    {
      "inputs": [],
      "name": "NotInitializing",
      "type": "error"
    },
    {
      "inputs": [
        {
          "internalType": "address",
          "name": "owner",
          "type": "address"
        }
      ],
      "name": "OwnableInvalidOwner",
      "type": "error"
    },
    {
      "inputs": [
        {
          "internalType": "address",
          "name": "account",
          "type": "address"
        }
      ],
      "name": "OwnableUnauthorizedAccount",
      "type": "error"
    },
    {
      "inputs": [],
      "name": "ReentrancyGuardReentrantCall",
      "type": "error"
    },
    {
      "inputs": [],
      "name": "UUPSUnauthorizedCallContext",
      "type": "error"
    },
    {
      "inputs": [
        {
          "internalType": "bytes32",
          "name": "slot",
          "type": "bytes32"
        }
      ],
      "name": "UUPSUnsupportedProxiableUUID",
      "type": "error"
    },
    {
      "anonymous": false,
      "inputs": [
        {
          "indexed": true,
          "internalType": "address",
          "name": "packageManager",
          "type": "address"
        },
        {
          "indexed": true,
          "internalType": "address",
          "name": "nxmToken",
          "type": "address"
        }
      ],
      "name": "ContractInitialized",
      "type": "event"
    },
    {
      "anonymous": false,
      "inputs": [
        {
          "indexed": false,
          "internalType": "uint64",
          "name": "version",
          "type": "uint64"
        }
      ],
      "name": "Initialized",
      "type": "event"
    },
    {
      "anonymous": false,
      "inputs": [
        {
          "indexed": true,
          "internalType": "address",
          "name": "previousOwner",
          "type": "address"
        },
        {
          "indexed": true,
          "internalType": "address",
          "name": "newOwner",
          "type": "address"
        }
      ],
      "name": "OwnershipTransferred",
      "type": "event"
    },
    {
      "anonymous": false,
      "inputs": [
        {
          "indexed": true,
          "internalType": "address",
          "name": "user",
          "type": "address"
        },
        {
          "indexed": false,
          "internalType": "uint256",
          "name": "amount",
          "type": "uint256"
        }
      ],
      "name": "ROIAccumulated",
      "type": "event"
    },
    {
      "anonymous": false,
      "inputs": [
        {
          "indexed": true,
          "internalType": "address",
          "name": "user",
          "type": "address"
        },
        {
          "indexed": false,
          "internalType": "uint256",
          "name": "dailyAmount",
          "type": "uint256"
        },
        {
          "indexed": false,
          "internalType": "uint256",
          "name": "packageIndex",
          "type": "uint256"
        }
      ],
      "name": "ROICalculated",
      "type": "event"
    },
    {
      "anonymous": false,
      "inputs": [
        {
          "indexed": true,
          "internalType": "address",
          "name": "user",
          "type": "address"
        },
        {
          "indexed": false,
          "internalType": "uint256",
          "name": "amount",
          "type": "uint256"
        },
        {
          "indexed": false,
          "internalType": "uint256",
          "name": "packageIndex",
          "type": "uint256"
        }
      ],
      "name": "ROIPaidOut",
      "type": "event"
    },
    {
      "anonymous": false,
      "inputs": [
        {
          "indexed": true,
          "internalType": "uint256",
          "name": "packageId",
          "type": "uint256"
        },
        {
          "indexed": false,
          "internalType": "uint256",
          "name": "newPercentage",
          "type": "uint256"
        }
      ],
      "name": "ROIPercentageUpdated",
      "type": "event"
    },
    {
      "anonymous": false,
      "inputs": [
        {
          "indexed": true,
          "internalType": "address",
          "name": "implementation",
          "type": "address"
        }
      ],
      "name": "Upgraded",
      "type": "event"
    },
    {
      "inputs": [],
      "name": "NXM",
      "outputs": [
        {
          "internalType": "address",
          "name": "",
          "type": "address"
        }
      ],
      "stateMutability": "view",
      "type": "function"
    },
    {
      "inputs": [],
      "name": "UPGRADE_INTERFACE_VERSION",
      "outputs": [
        {
          "internalType": "string",
          "name": "",
          "type": "string"
        }
      ],
      "stateMutability": "view",
      "type": "function"
    },
    {
      "inputs": [
        {
          "internalType": "address",
          "name": "_user",
          "type": "address"
        },
        {
          "internalType": "uint256[]",
          "name": "_packageIndexes",
          "type": "uint256[]"
        }
      ],
      "name": "automaticDailyROI",
      "outputs": [],
      "stateMutability": "nonpayable",
      "type": "function"
    },
    {
      "inputs": [
        {
          "internalType": "address",
          "name": "_user",
          "type": "address"
        },
        {
          "internalType": "uint256",
          "name": "_packageIndex",
          "type": "uint256"
        }
      ],
      "name": "calculatePendingROI",
      "outputs": [
        {
          "internalType": "uint256",
          "name": "",
          "type": "uint256"
        }
      ],
      "stateMutability": "view",
      "type": "function"
    },
    {
      "inputs": [
        {
          "internalType": "uint256",
          "name": "_packageIndex",
          "type": "uint256"
        }
      ],
      "name": "claimROI",
      "outputs": [],
      "stateMutability": "nonpayable",
      "type": "function"
    },
    {
      "inputs": [
        {
          "internalType": "uint256",
          "name": "",
          "type": "uint256"
        }
      ],
      "name": "dailyROIPercentages",
      "outputs": [
        {
          "internalType": "uint256",
          "name": "",
          "type": "uint256"
        }
      ],
      "stateMutability": "view",
      "type": "function"
    },
    {
      "inputs": [
        {
          "internalType": "address",
          "name": "_user",
          "type": "address"
        }
      ],
      "name": "getPendingROI",
      "outputs": [
        {
          "internalType": "uint256",
          "name": "",
          "type": "uint256"
        }
      ],
      "stateMutability": "view",
      "type": "function"
    },
    {
      "inputs": [
        {
          "internalType": "address",
          "name": "_user",
          "type": "address"
        },
        {
          "internalType": "uint256",
          "name": "_packageIndex",
          "type": "uint256"
        }
      ],
      "name": "getROIRecord",
      "outputs": [
        {
          "components": [
            {
              "internalType": "address",
              "name": "user",
              "type": "address"
            },
            {
              "internalType": "uint256",
              "name": "packageIndex",
              "type": "uint256"
            },
            {
              "internalType": "uint256",
              "name": "lastClaimTime",
              "type": "uint256"
            },
            {
              "internalType": "uint256",
              "name": "totalPaidOut",
              "type": "uint256"
            },
            {
              "internalType": "bool",
              "name": "active",
              "type": "bool"
            }
          ],
          "internalType": "struct ROIManager.ROIRecord",
          "name": "",
          "type": "tuple"
        }
      ],
      "stateMutability": "view",
      "type": "function"
    },
    {
      "inputs": [
        {
          "internalType": "address",
          "name": "_packageManager",
          "type": "address"
        },
        {
          "internalType": "address",
          "name": "_nxm",
          "type": "address"
        }
      ],
      "name": "initialize",
      "outputs": [],
      "stateMutability": "nonpayable",
      "type": "function"
    },
    {
      "inputs": [],
      "name": "owner",
      "outputs": [
        {
          "internalType": "address",
          "name": "",
          "type": "address"
        }
      ],
      "stateMutability": "view",
      "type": "function"
    },
    {
      "inputs": [],
      "name": "packageManager",
      "outputs": [
        {
          "internalType": "contract IPackageManager",
          "name": "",
          "type": "address"
        }
      ],
      "stateMutability": "view",
      "type": "function"
    },
    {
      "inputs": [
        {
          "internalType": "address",
          "name": "",
          "type": "address"
        }
      ],
      "name": "pendingROI",
      "outputs": [
        {
          "internalType": "uint256",
          "name": "",
          "type": "uint256"
        }
      ],
      "stateMutability": "view",
      "type": "function"
    },
    {
      "inputs": [],
      "name": "proxiableUUID",
      "outputs": [
        {
          "internalType": "bytes32",
          "name": "",
          "type": "bytes32"
        }
      ],
      "stateMutability": "view",
      "type": "function"
    },
    {
      "inputs": [],
      "name": "renounceOwnership",
      "outputs": [],
      "stateMutability": "nonpayable",
      "type": "function"
    },
    {
      "inputs": [
        {
          "internalType": "address",
          "name": "",
          "type": "address"
        },
        {
          "internalType": "uint256",
          "name": "",
          "type": "uint256"
        }
      ],
      "name": "roiRecords",
      "outputs": [
        {
          "internalType": "address",
          "name": "user",
          "type": "address"
        },
        {
          "internalType": "uint256",
          "name": "packageIndex",
          "type": "uint256"
        },
        {
          "internalType": "uint256",
          "name": "lastClaimTime",
          "type": "uint256"
        },
        {
          "internalType": "uint256",
          "name": "totalPaidOut",
          "type": "uint256"
        },
        {
          "internalType": "bool",
          "name": "active",
          "type": "bool"
        }
      ],
      "stateMutability": "view",
      "type": "function"
    },
    {
      "inputs": [
        {
          "internalType": "address",
          "name": "newOwner",
          "type": "address"
        }
      ],
      "name": "transferOwnership",
      "outputs": [],
      "stateMutability": "nonpayable",
      "type": "function"
    },
    {
      "inputs": [
        {
          "internalType": "uint256",
          "name": "_packageId",
          "type": "uint256"
        },
        {
          "internalType": "uint256",
          "name": "_newPercentage",
          "type": "uint256"
        }
      ],
      "name": "updateDailyROI",
      "outputs": [],
      "stateMutability": "nonpayable",
      "type": "function"
    },
    {
      "inputs": [
        {
          "internalType": "address",
          "name": "newImplementation",
          "type": "address"
        },
        {
          "internalType": "bytes",
          "name": "data",
          "type": "bytes"
        }
      ],
      "name": "upgradeToAndCall",
      "outputs": [],
      "stateMutability": "payable",
      "type": "function"
    },
    {
      "inputs": [
        {
          "internalType": "uint256",
          "name": "_amount",
          "type": "uint256"
        }
      ],
      "name": "withdrawROI",
      "outputs": [],
      "stateMutability": "nonpayable",
      "type": "function"
    },
    {
      "inputs": [],
      "name": "withdrawnROI",
      "outputs": [
        {
          "internalType": "uint256",
          "name": "",
          "type": "uint256"
        }
      ],
      "stateMutability": "view",
      "type": "function"
    }
  ],
  "bytecode": "0x60a06040523060805234801561001457600080fd5b50338061003b57604051631e4fbdf760e01b81526000600482015260240160405180910390fd5b6100448161004e565b506001805561009e565b600080546001600160a01b038381166001600160a01b0319831681178455604051919092169283917f8be0079c531659141344cd1fd0a4f28419497f9722a3daafe3b4186f6b6457e09190a35050565b608051611a626100c76000396000818161117f015281816111a801526112e00152611a626000f3fe60806040526004361061011f5760003560e01c8063a36139ab116100a0578063c07be94c11610064578063c07be94c146103fa578063caeadc071461041a578063d2bd1c821461043a578063e805b90514610467578063f2fde38b1461047d57600080fd5b8063a36139ab146102f4578063a795d73e14610314578063ad3cb1cc14610334578063adcea4c214610372578063bf2e233e146103da57600080fd5b806352d1902d116100e757806352d1902d146101e25780636661e316146101f7578063715018a6146102245780638da5cb5b146102395780639065eb061461026057600080fd5b8063076575b0146101245780632386c47d1461016d578063485cc9551461018f5780634e7e772b146101af5780634f1ef286146101cf575b600080fd5b34801561013057600080fd5b5061015a61013f366004611550565b6001600160a01b031660009081526005602052604090205490565b6040519081526020015b60405180910390f35b34801561017957600080fd5b5061018d61018836600461156b565b61049d565b005b34801561019b57600080fd5b5061018d6101aa366004611584565b610597565b3480156101bb57600080fd5b5061018d6101ca36600461156b565b61083f565b61018d6101dd366004611625565b6109d5565b3480156101ee57600080fd5b5061015a6109f4565b34801561020357600080fd5b5061015a610212366004611550565b60056020526000908152604090205481565b34801561023057600080fd5b5061018d610a11565b34801561024557600080fd5b506000546001600160a01b03165b60405161016491906116ca565b34801561026c57600080fd5b506102c061027b3660046116de565b60046020818152600093845260408085209091529183529120805460018201546002830154600384015493909401546001600160a01b03909216939092909160ff1685565b604080516001600160a01b03909616865260208601949094529284019190915260608301521515608082015260a001610164565b34801561030057600080fd5b5061018d61030f366004611708565b610a25565b34801561032057600080fd5b5061018d61032f36600461172a565b610b32565b34801561034057600080fd5b50610365604051806040016040528060058152602001640352e302e360dc1b81525081565b60405161016491906117d3565b34801561037e57600080fd5b5061039261038d3660046116de565b610dd1565b604051610164919081516001600160a01b0316815260208083015190820152604080830151908201526060808301519082015260809182015115159181019190915260a00190565b3480156103e657600080fd5b50600254610253906001600160a01b031681565b34801561040657600080fd5b5061015a6104153660046116de565b610e78565b34801561042657600080fd5b50600354610253906001600160a01b031681565b34801561044657600080fd5b5061015a61045536600461156b565b60066020526000908152604090205481565b34801561047357600080fd5b5061015a60075481565b34801561048957600080fd5b5061018d610498366004611550565b6110e2565b6104a561111d565b60006104b13383610e78565b9050600081116104f95760405162461bcd60e51b815260206004820152600e60248201526d4e6f2070656e64696e6720524f4960901b60448201526064015b60405180910390fd5b3360009081526004602090815260408083208584529091528120426002820155600301805483929061052c90849061181c565b9091555050336000908152600560205260408120805483929061055090849061181c565b909155505060405181815233907f5f73f149a956c713e13025bc5866316ffb84114cfe4900677bccf9e70bc1163b9060200160405180910390a25061059460018055565b50565b7ff0c57e16840df040f15088dc2f81fe391c3923bec73e23a9662efc9c229c6a008054600160401b810460ff1615906001600160401b03166000811580156105dc5750825b90506000826001600160401b031660011480156105f85750303b155b905081158015610606575080155b156106245760405163f92ee8a960e01b815260040160405180910390fd5b845467ffffffffffffffff19166001178555831561064e57845460ff60401b1916600160401b1785555b610656611147565b6001600160a01b0387166106ac5760405162461bcd60e51b815260206004820152601e60248201527f496e76616c6964205061636b6167654d616e616765722061646472657373000060448201526064016104f0565b6001600160a01b0386166106fe5760405162461bcd60e51b8152602060048201526019602482015278496e76616c6964204e584d20746f6b656e206164647265737360381b60448201526064016104f0565b600280546001600160a01b03808a166001600160a01b0319928316811790935560038054918a169190921681178255600660205260287f54cdd369e4e8a8515e52ca72ec816c2101831ad1f18bf44102ed171459c9b4f855603c7f3e5fec24aa4dc4e5aee2e025e51e1392c72a2500577559fae9665c6d52bd6a3155604b7f8819ef417987f8ae7a81f42cdfb18815282fe989326fbff903d13cf0e03ace2955600091825260647f75f96ab15d697e93042dc45b5c896c4b27e89bb6eaf39475c5c371cb2513f7d2556040519092917fcfd4cf9f57f9bd711771339af9ed09be4f666c6ab304414f2415937a13b9ae2991a3831561083657845460ff60401b19168555604051600181527fc7f505b2f371ae2175ee4913f4499e1f2633a7b5936321eed1cdaeb6115181d29060200160405180910390a15b50505050505050565b61084761111d565b336000908152600560205260409020548111156108a15760405162461bcd60e51b8152602060048201526018602482015277496e73756666696369656e7420524f492062616c616e636560401b60448201526064016104f0565b33600090815260056020526040812080548392906108c090849061182f565b9250508190555080600760008282546108d9919061181c565b909155505060035460405163a9059cbb60e01b8152336004820152602481018390526001600160a01b039091169063a9059cbb906044016020604051808303816000875af115801561092f573d6000803e3d6000fd5b505050506040513d601f19601f820116820180604052508101906109539190611852565b6109915760405162461bcd60e51b815260206004820152600f60248201526e151c985b9cd9995c8819985a5b1959608a1b60448201526064016104f0565b604080518281526000602082015233917fcb4ab21808edaec98a44d5188ea81e595f95ad6ec42060e434ea5d9cce44e6fc910160405180910390a261059460018055565b6109dd611174565b6109e682611219565b6109f08282611221565b5050565b60006109fe6112d5565b50600080516020611a0d83398151915290565b610a19611147565b610a23600061131e565b565b610a2d611147565b60048210610a725760405162461bcd60e51b8152602060048201526012602482015271125b9d985b1a59081c1858dad859d948125160721b60448201526064016104f0565b600081118015610a8457506103e88111155b610ae15760405162461bcd60e51b815260206004820152602860248201527f50657263656e74616765206d757374206265206265747765656e20302e30312560448201526720616e642031302560c01b60648201526084016104f0565b600082815260066020526040908190208290555182907fdc53d0312548bb9f60dc9f2c8cd1caadfff0ce188d4d9a1ed9c36cb190e951e890610b269084815260200190565b60405180910390a25050565b610b3a611147565b60005b81811015610cc4576000610b6985858585818110610b5d57610b5d61186d565b90506020020135610e78565b90508015610cb1576001600160a01b03851660009081526004602052604081204291868686818110610b9d57610b9d61186d565b905060200201358152602001908152602001600020600201819055508060046000876001600160a01b03166001600160a01b031681526020019081526020016000206000868686818110610bf357610bf361186d565b9050602002013581526020019081526020016000206003016000828254610c1a919061181c565b90915550506001600160a01b03851660009081526005602052604081208054839290610c4790849061181c565b90915550506001600160a01b0385167f1f3eca8ce3b2e19440f584fb511237a50d16ae1f643c1b29b9a48066366c752d82868686818110610c8a57610c8a61186d565b90506020020135604051610ca8929190918252602082015260400190565b60405180910390a25b5080610cbc81611883565b915050610b3d565b506001600160a01b03831660009081526005602052604090205415610dcc576001600160a01b038381166000818152600560205260408082208054929055600354905163a9059cbb60e01b81526004810193909352602483018290529092169063a9059cbb906044016020604051808303816000875af1158015610d4c573d6000803e3d6000fd5b505050506040513d601f19601f82011682018060405250810190610d709190611852565b610db35760405162461bcd60e51b8152602060048201526014602482015273105d5d1bcb5d1c985b9cd9995c8819985a5b195960621b60448201526064016104f0565b8060076000828254610dc5919061181c565b9091555050505b505050565b610e0e6040518060a0016040528060006001600160a01b031681526020016000815260200160008152602001600081526020016000151581525090565b506001600160a01b038083166000908152600460208181526040808420868552825292839020835160a0810185528154909516855260018101549185019190915260028101549284019290925260038201546060840152015460ff16151560808201525b92915050565b600254604051631bddea6f60e31b815260009182916001600160a01b039091169063deef537890610ead9087906004016116ca565b600060405180830381865afa158015610eca573d6000803e3d6000fd5b505050506040513d6000823e601f3d908101601f19168201604052610ef2919081019061189c565b905080518310610f3c5760405162461bcd60e51b8152602060048201526015602482015274092dcecc2d8d2c840e0c2c6d6c2ceca40d2dcc8caf605b1b60448201526064016104f0565b6000818481518110610f5057610f5061186d565b602002602001015190508060a00151610fa05760405162461bcd60e51b81526020600482015260126024820152715061636b616765206e6f742061637469766560701b60448201526064016104f0565b8060800151816060015110610fba57600092505050610e72565b6001600160a01b0380861660009081526004602081815260408084208985528252808420815160a0810183528154909616865260018101549286019290925260028201549085018190526003820154606086015291015460ff161515608084015261103357604083015161102e904261182f565b611042565b6040820151611042904261182f565b90506000611053620151808361199e565b90508060000361106b57600095505050505050610e72565b83516000908152600660209081526040822054908601519091908390612710906110969085906119c0565b6110a0919061199e565b6110aa91906119c0565b90506000866060015187608001516110c2919061182f565b90508082116110d157816110d3565b805b9b9a5050505050505050505050565b6110ea611147565b6001600160a01b038116611114576000604051631e4fbdf760e01b81526004016104f091906116ca565b6105948161131e565b60026001540361114057604051633ee5aeb560e01b815260040160405180910390fd5b6002600155565b6000546001600160a01b03163314610a23573360405163118cdaa760e01b81526004016104f091906116ca565b306001600160a01b037f00000000000000000000000000000000000000000000000000000000000000001614806111fb57507f00000000000000000000000000000000000000000000000000000000000000006001600160a01b03166111ef600080516020611a0d833981519152546001600160a01b031690565b6001600160a01b031614155b15610a235760405163703e46dd60e11b815260040160405180910390fd5b610594611147565b816001600160a01b03166352d1902d6040518163ffffffff1660e01b8152600401602060405180830381865afa92505050801561127b575060408051601f3d908101601f19168201909252611278918101906119d7565b60015b61129a5781604051634c9c8ce360e01b81526004016104f091906116ca565b600080516020611a0d83398151915281146112cb57604051632a87526960e21b8152600481018290526024016104f0565b610dcc838361136e565b306001600160a01b037f00000000000000000000000000000000000000000000000000000000000000001614610a235760405163703e46dd60e11b815260040160405180910390fd5b600080546001600160a01b038381166001600160a01b0319831681178455604051919092169283917f8be0079c531659141344cd1fd0a4f28419497f9722a3daafe3b4186f6b6457e09190a35050565b611377826113c4565b6040516001600160a01b038316907fbc7cd75a20ee27fd9adebab32041f755214dbc6bffa90cc0225b39da2e5c2d3b90600090a28051156113bc57610dcc8282611420565b6109f0611496565b806001600160a01b03163b6000036113f15780604051634c9c8ce360e01b81526004016104f091906116ca565b600080516020611a0d83398151915280546001600160a01b0319166001600160a01b0392909216919091179055565b6060600080846001600160a01b03168460405161143d91906119f0565b600060405180830381855af49150503d8060008114611478576040519150601f19603f3d011682016040523d82523d6000602084013e61147d565b606091505b509150915061148d8583836114b5565b95945050505050565b3415610a235760405163b398979f60e01b815260040160405180910390fd5b6060826114ca576114c58261150b565b611504565b81511580156114e157506001600160a01b0384163b155b156115015783604051639996b31560e01b81526004016104f091906116ca565b50805b9392505050565b80511561151b5780518082602001fd5b604051630a12f52160e11b815260040160405180910390fd5b80356001600160a01b038116811461154b57600080fd5b919050565b60006020828403121561156257600080fd5b61150482611534565b60006020828403121561157d57600080fd5b5035919050565b6000806040838503121561159757600080fd5b6115a083611534565b91506115ae60208401611534565b90509250929050565b634e487b7160e01b600052604160045260246000fd5b60405160e081016001600160401b03811182821017156115ef576115ef6115b7565b60405290565b604051601f8201601f191681016001600160401b038111828210171561161d5761161d6115b7565b604052919050565b6000806040838503121561163857600080fd5b61164183611534565b91506020808401356001600160401b038082111561165e57600080fd5b818601915086601f83011261167257600080fd5b813581811115611684576116846115b7565b611696601f8201601f191685016115f5565b915080825287848285010111156116ac57600080fd5b80848401858401376000848284010152508093505050509250929050565b6001600160a01b0391909116815260200190565b600080604083850312156116f157600080fd5b6116fa83611534565b946020939093013593505050565b6000806040838503121561171b57600080fd5b50508035926020909101359150565b60008060006040848603121561173f57600080fd5b61174884611534565b925060208401356001600160401b038082111561176457600080fd5b818601915086601f83011261177857600080fd5b81358181111561178757600080fd5b8760208260051b850101111561179c57600080fd5b6020830194508093505050509250925092565b60005b838110156117ca5781810151838201526020016117b2565b50506000910152565b60208152600082518060208401526117f28160408501602087016117af565b601f01601f19169190910160400192915050565b634e487b7160e01b600052601160045260246000fd5b80820180821115610e7257610e72611806565b81810381811115610e7257610e72611806565b8051801515811461154b57600080fd5b60006020828403121561186457600080fd5b61150482611842565b634e487b7160e01b600052603260045260246000fd5b60006001820161189557611895611806565b5060010190565b600060208083850312156118af57600080fd5b82516001600160401b03808211156118c657600080fd5b818501915085601f8301126118da57600080fd5b8151818111156118ec576118ec6115b7565b6118fa848260051b016115f5565b818152848101925060e091820284018501918883111561191957600080fd5b938501935b828510156119925780858a0312156119365760008081fd5b61193e6115cd565b85518152868601518782015260408087015190820152606080870151908201526080808701519082015260a0611975818801611842565b9082015260c086810151908201528452938401939285019261191e565b50979650505050505050565b6000826119bb57634e487b7160e01b600052601260045260246000fd5b500490565b8082028115828204841417610e7257610e72611806565b6000602082840312156119e957600080fd5b5051919050565b60008251611a028184602087016117af565b919091019291505056fe360894a13ba1a3210667c828492db98dca3e2076cc3735a920a3ca505d382bbca2646970667358221220ee187d48dafbbd1f9872b6223843ebc5e0bf39d835d95c76049a23b2a1f8239f64736f6c63430008140033",
  "linkReferences": {},
  "deployedLinkReferences": {}
}