{
  "_format": "hh-sol-artifact-1",
  "contractName": "PackageManager",
  "sourceName": "contracts/PackageManager.sol",
  "abi": [
    {
      "inputs": [],
      "stateMutability": "nonpayable",
      "type": "constructor"
    },
    {
      "inputs": [
        {
          "internalType": "address",
          "name": "target",
          "type": "address"
        }
      ],
      "name": "AddressEmptyCode",
      "type": "error"
    },
    {
      "inputs": [
        {
          "internalType": "address",
          "name": "implementation",
          "type": "address"
        }
      ],
      "name": "ERC1967InvalidImplementation",
      "type": "error"
    },
    {
      "inputs": [],
      "name": "ERC1967NonPayable",
      "type": "error"
    },
    {
      "inputs": [],
      "name": "FailedInnerCall",
      "type": "error"
    },
    {
      "inputs": [],
      "name": "InvalidInitialization",
      "type": "error"
    },
    {
      "inputs": [],
      "name": "NotInitializing",
      "type": "error"
    },
    {
      "inputs": [
        {
          "internalType": "address",
          "name": "owner",
          "type": "address"
        }
      ],
      "name": "OwnableInvalidOwner",
      "type": "error"
    },
    {
      "inputs": [
        {
          "internalType": "address",
          "name": "account",
          "type": "address"
        }
      ],
      "name": "OwnableUnauthorizedAccount",
      "type": "error"
    },
    {
      "inputs": [],
      "name": "ReentrancyGuardReentrantCall",
      "type": "error"
    },
    {
      "inputs": [],
      "name": "UUPSUnauthorizedCallContext",
      "type": "error"
    },
    {
      "inputs": [
        {
          "internalType": "bytes32",
          "name": "slot",
          "type": "bytes32"
        }
      ],
      "name": "UUPSUnsupportedProxiableUUID",
      "type": "error"
    },
    {
      "anonymous": false,
      "inputs": [
        {
          "indexed": true,
          "internalType": "address",
          "name": "busd",
          "type": "address"
        },
        {
          "indexed": true,
          "internalType": "address",
          "name": "usdt",
          "type": "address"
        },
        {
          "indexed": true,
          "internalType": "address",
          "name": "usdc",
          "type": "address"
        }
      ],
      "name": "ContractInitialized",
      "type": "event"
    },
    {
      "anonymous": false,
      "inputs": [
        {
          "indexed": false,
          "internalType": "uint64",
          "name": "version",
          "type": "uint64"
        }
      ],
      "name": "Initialized",
      "type": "event"
    },
    {
      "anonymous": false,
      "inputs": [
        {
          "indexed": true,
          "internalType": "address",
          "name": "previousOwner",
          "type": "address"
        },
        {
          "indexed": true,
          "internalType": "address",
          "name": "newOwner",
          "type": "address"
        }
      ],
      "name": "OwnershipTransferred",
      "type": "event"
    },
    {
      "anonymous": false,
      "inputs": [
        {
          "indexed": true,
          "internalType": "address",
          "name": "user",
          "type": "address"
        },
        {
          "indexed": false,
          "internalType": "uint256",
          "name": "packageId",
          "type": "uint256"
        },
        {
          "indexed": false,
          "internalType": "uint256",
          "name": "amount",
          "type": "uint256"
        },
        {
          "indexed": false,
          "internalType": "address",
          "name": "paymentToken",
          "type": "address"
        }
      ],
      "name": "PackagePurchased",
      "type": "event"
    },
    {
      "anonymous": false,
      "inputs": [
        {
          "indexed": false,
          "internalType": "uint256",
          "name": "amount",
          "type": "uint256"
        },
        {
          "indexed": false,
          "internalType": "address",
          "name": "token",
          "type": "address"
        }
      ],
      "name": "PoolContributed",
      "type": "event"
    },
    {
      "anonymous": false,
      "inputs": [
        {
          "indexed": false,
          "internalType": "uint256",
          "name": "totalPool",
          "type": "uint256"
        },
        {
          "indexed": false,
          "internalType": "address",
          "name": "token",
          "type": "address"
        },
        {
          "indexed": false,
          "internalType": "uint256",
          "name": "amount",
          "type": "uint256"
        }
      ],
      "name": "PoolUpdated",
      "type": "event"
    },
    {
      "anonymous": false,
      "inputs": [
        {
          "indexed": true,
          "internalType": "address",
          "name": "user",
          "type": "address"
        },
        {
          "indexed": false,
          "internalType": "uint256",
          "name": "amount",
          "type": "uint256"
        }
      ],
      "name": "ROIEarned",
      "type": "event"
    },
    {
      "anonymous": false,
      "inputs": [
        {
          "indexed": true,
          "internalType": "address",
          "name": "implementation",
          "type": "address"
        }
      ],
      "name": "Upgraded",
      "type": "event"
    },
    {
      "inputs": [],
      "name": "BUSD",
      "outputs": [
        {
          "internalType": "address",
          "name": "",
          "type": "address"
        }
      ],
      "stateMutability": "view",
      "type": "function"
    },
    {
      "inputs": [],
      "name": "NXM",
      "outputs": [
        {
          "internalType": "address",
          "name": "",
          "type": "address"
        }
      ],
      "stateMutability": "view",
      "type": "function"
    },
    {
      "inputs": [],
      "name": "UPGRADE_INTERFACE_VERSION",
      "outputs": [
        {
          "internalType": "string",
          "name": "",
          "type": "string"
        }
      ],
      "stateMutability": "view",
      "type": "function"
    },
    {
      "inputs": [],
      "name": "USDC",
      "outputs": [
        {
          "internalType": "address",
          "name": "",
          "type": "address"
        }
      ],
      "stateMutability": "view",
      "type": "function"
    },
    {
      "inputs": [],
      "name": "USDT",
      "outputs": [
        {
          "internalType": "address",
          "name": "",
          "type": "address"
        }
      ],
      "stateMutability": "view",
      "type": "function"
    },
    {
      "inputs": [],
      "name": "WBNB",
      "outputs": [
        {
          "internalType": "address",
          "name": "",
          "type": "address"
        }
      ],
      "stateMutability": "view",
      "type": "function"
    },
    {
      "inputs": [
        {
          "internalType": "uint256",
          "name": "_packageId",
          "type": "uint256"
        }
      ],
      "name": "getPackage",
      "outputs": [
        {
          "components": [
            {
              "internalType": "uint256",
              "name": "id",
              "type": "uint256"
            },
            {
              "internalType": "uint256",
              "name": "amount",
              "type": "uint256"
            },
            {
              "internalType": "uint256",
              "name": "dailyROI",
              "type": "uint256"
            },
            {
              "internalType": "bool",
              "name": "active",
              "type": "bool"
            }
          ],
          "internalType": "struct PackageManager.Package",
          "name": "",
          "type": "tuple"
        }
      ],
      "stateMutability": "view",
      "type": "function"
    },
    {
      "inputs": [
        {
          "internalType": "address",
          "name": "_user",
          "type": "address"
        }
      ],
      "name": "getUserPackages",
      "outputs": [
        {
          "components": [
            {
              "internalType": "uint256",
              "name": "packageId",
              "type": "uint256"
            },
            {
              "internalType": "uint256",
              "name": "amount",
              "type": "uint256"
            },
            {
              "internalType": "uint256",
              "name": "purchaseTime",
              "type": "uint256"
            },
            {
              "internalType": "uint256",
              "name": "earnings",
              "type": "uint256"
            },
            {
              "internalType": "uint256",
              "name": "maxEarnings",
              "type": "uint256"
            },
            {
              "internalType": "bool",
              "name": "active",
              "type": "bool"
            },
            {
              "internalType": "uint256",
              "name": "topUpCount",
              "type": "uint256"
            }
          ],
          "internalType": "struct PackageManager.UserPackage[]",
          "name": "",
          "type": "tuple[]"
        }
      ],
      "stateMutability": "view",
      "type": "function"
    },
    {
      "inputs": [
        {
          "internalType": "address",
          "name": "_busd",
          "type": "address"
        },
        {
          "internalType": "address",
          "name": "_usdt",
          "type": "address"
        },
        {
          "internalType": "address",
          "name": "_usdc",
          "type": "address"
        },
        {
          "internalType": "address",
          "name": "_nxm",
          "type": "address"
        },
        {
          "internalType": "address",
          "name": "_wbnb",
          "type": "address"
        },
        {
          "internalType": "address",
          "name": "_pancakeRouter",
          "type": "address"
        }
      ],
      "name": "initialize",
      "outputs": [],
      "stateMutability": "nonpayable",
      "type": "function"
    },
    {
      "inputs": [],
      "name": "owner",
      "outputs": [
        {
          "internalType": "address",
          "name": "",
          "type": "address"
        }
      ],
      "stateMutability": "view",
      "type": "function"
    },
    {
      "inputs": [
        {
          "internalType": "uint256",
          "name": "",
          "type": "uint256"
        }
      ],
      "name": "packages",
      "outputs": [
        {
          "internalType": "uint256",
          "name": "id",
          "type": "uint256"
        },
        {
          "internalType": "uint256",
          "name": "amount",
          "type": "uint256"
        },
        {
          "internalType": "uint256",
          "name": "dailyROI",
          "type": "uint256"
        },
        {
          "internalType": "bool",
          "name": "active",
          "type": "bool"
        }
      ],
      "stateMutability": "view",
      "type": "function"
    },
    {
      "inputs": [],
      "name": "pancakeRouter",
      "outputs": [
        {
          "internalType": "address",
          "name": "",
          "type": "address"
        }
      ],
      "stateMutability": "view",
      "type": "function"
    },
    {
      "inputs": [
        {
          "internalType": "address",
          "name": "",
          "type": "address"
        }
      ],
      "name": "poolContributions",
      "outputs": [
        {
          "internalType": "uint256",
          "name": "",
          "type": "uint256"
        }
      ],
      "stateMutability": "view",
      "type": "function"
    },
    {
      "inputs": [],
      "name": "proxiableUUID",
      "outputs": [
        {
          "internalType": "bytes32",
          "name": "",
          "type": "bytes32"
        }
      ],
      "stateMutability": "view",
      "type": "function"
    },
    {
      "inputs": [
        {
          "internalType": "uint256",
          "name": "_packageId",
          "type": "uint256"
        }
      ],
      "name": "purchasePackageWithBNB",
      "outputs": [],
      "stateMutability": "payable",
      "type": "function"
    },
    {
      "inputs": [
        {
          "internalType": "uint256",
          "name": "_packageId",
          "type": "uint256"
        },
        {
          "internalType": "uint256",
          "name": "_amount",
          "type": "uint256"
        }
      ],
      "name": "purchasePackageWithNXM",
      "outputs": [],
      "stateMutability": "nonpayable",
      "type": "function"
    },
    {
      "inputs": [
        {
          "internalType": "uint256",
          "name": "_packageId",
          "type": "uint256"
        },
        {
          "internalType": "uint256",
          "name": "_amount",
          "type": "uint256"
        },
        {
          "internalType": "address",
          "name": "_token",
          "type": "address"
        }
      ],
      "name": "purchasePackageWithStableCoin",
      "outputs": [],
      "stateMutability": "nonpayable",
      "type": "function"
    },
    {
      "inputs": [],
      "name": "renounceOwnership",
      "outputs": [],
      "stateMutability": "nonpayable",
      "type": "function"
    },
    {
      "inputs": [],
      "name": "totalPool",
      "outputs": [
        {
          "internalType": "uint256",
          "name": "",
          "type": "uint256"
        }
      ],
      "stateMutability": "view",
      "type": "function"
    },
    {
      "inputs": [
        {
          "internalType": "address",
          "name": "newOwner",
          "type": "address"
        }
      ],
      "name": "transferOwnership",
      "outputs": [],
      "stateMutability": "nonpayable",
      "type": "function"
    },
    {
      "inputs": [
        {
          "internalType": "address",
          "name": "newImplementation",
          "type": "address"
        },
        {
          "internalType": "bytes",
          "name": "data",
          "type": "bytes"
        }
      ],
      "name": "upgradeToAndCall",
      "outputs": [],
      "stateMutability": "payable",
      "type": "function"
    },
    {
      "inputs": [
        {
          "internalType": "address",
          "name": "",
          "type": "address"
        },
        {
          "internalType": "uint256",
          "name": "",
          "type": "uint256"
        }
      ],
      "name": "userPackages",
      "outputs": [
        {
          "internalType": "uint256",
          "name": "packageId",
          "type": "uint256"
        },
        {
          "internalType": "uint256",
          "name": "amount",
          "type": "uint256"
        },
        {
          "internalType": "uint256",
          "name": "purchaseTime",
          "type": "uint256"
        },
        {
          "internalType": "uint256",
          "name": "earnings",
          "type": "uint256"
        },
        {
          "internalType": "uint256",
          "name": "maxEarnings",
          "type": "uint256"
        },
        {
          "internalType": "bool",
          "name": "active",
          "type": "bool"
        },
        {
          "internalType": "uint256",
          "name": "topUpCount",
          "type": "uint256"
        }
      ],
      "stateMutability": "view",
      "type": "function"
    },
    {
      "inputs": [
        {
          "internalType": "address",
          "name": "_token",
          "type": "address"
        },
        {
          "internalType": "uint256",
          "name": "_amount",
          "type": "uint256"
        }
      ],
      "name": "withdrawFromPool",
      "outputs": [],
      "stateMutability": "nonpayable",
      "type": "function"
    }
  ],
  "bytecode": "0x60a06040523060805234801561001457600080fd5b50338061003b57604051631e4fbdf760e01b81526000600482015260240160405180910390fd5b6100448161004e565b506001805561009e565b600080546001600160a01b038381166001600160a01b0319831681178455604051919092169283917f8be0079c531659141344cd1fd0a4f28419497f9722a3daafe3b4186f6b6457e09190a35050565b60805161212c6100c76000396000818161181f015281816118480152611980015261212c6000f3fe6080604052600436106101405760003560e01c8063ad3cb1cc116100b6578063c54e44eb1161006f578063c54e44eb14610412578063caeadc0714610432578063cc2a9a5b14610452578063deef537814610472578063ecfb49a31461049f578063f2fde38b146104b557600080fd5b8063ad3cb1cc146102ea578063b1d7c4c314610328578063b99dfe181461033b578063c1bf9e5814610390578063c216212a146103b0578063c21ebd07146103f257600080fd5b8063715018a611610108578063715018a6146101f3578063849f691f1461020857806389a30271146102355780638bb0097b146102555780638da5cb5b146102ac5780638dd95002146102ca57600080fd5b80631f473c86146101455780632030f33314610167578063484f4ea9146101875780634f1ef286146101bd57806352d1902d146101d0575b600080fd5b34801561015157600080fd5b50610165610160366004611c03565b6104d5565b005b34801561017357600080fd5b50610165610182366004611c41565b6107a6565b34801561019357600080fd5b506002546101a7906001600160a01b031681565b6040516101b49190611c76565b60405180910390f35b6101656101cb366004611ca0565b610ae1565b3480156101dc57600080fd5b506101e5610afc565b6040519081526020016101b4565b3480156101ff57600080fd5b50610165610b19565b34801561021457600080fd5b506101e5610223366004611d62565b600b6020526000908152604090205481565b34801561024157600080fd5b506004546101a7906001600160a01b031681565b34801561026157600080fd5b50610275610270366004611d7d565b610b2d565b6040805197885260208801969096529486019390935260608501919091526080840152151560a083015260c082015260e0016101b4565b3480156102b857600080fd5b506000546001600160a01b03166101a7565b3480156102d657600080fd5b506006546101a7906001600160a01b031681565b3480156102f657600080fd5b5061031b604051806040016040528060058152602001640352e302e360dc1b81525081565b6040516101b49190611dcb565b610165610336366004611dfe565b610b8d565b34801561034757600080fd5b5061035b610356366004611dfe565b610e06565b6040516101b4919081518152602080830151908201526040808301519082015260609182015115159181019190915260800190565b34801561039c57600080fd5b506101656103ab366004611d7d565b610eb3565b3480156103bc57600080fd5b506103d06103cb366004611dfe565b6110b3565b60408051948552602085019390935291830152151560608201526080016101b4565b3480156103fe57600080fd5b506007546101a7906001600160a01b031681565b34801561041e57600080fd5b506003546101a7906001600160a01b031681565b34801561043e57600080fd5b506005546101a7906001600160a01b031681565b34801561045e57600080fd5b5061016561046d366004611e17565b6110f0565b34801561047e57600080fd5b5061049261048d366004611d62565b6116f5565b6040516101b49190611e8b565b3480156104ab57600080fd5b506101e5600a5481565b3480156104c157600080fd5b506101656104d0366004611d62565b6117af565b6104dd6117ea565b60085482106105075760405162461bcd60e51b81526004016104fe90611f0f565b60405180910390fd5b6008828154811061051a5761051a611f38565b600091825260209091206003600490920201015460ff1661054d5760405162461bcd60e51b81526004016104fe90611f4e565b60006008838154811061056257610562611f38565b60009182526020918290206040805160808101825260049093029091018054835260018101549383018490526002810154918301919091526003015460ff161515606082015291508210156105c95760405162461bcd60e51b81526004016104fe90611f7a565b6005546040516323b872dd60e01b81526001600160a01b03909116906323b872dd906105fd90339030908790600401611fa7565b6020604051808303816000875af115801561061c573d6000803e3d6000fd5b505050506040513d601f19601f820116820180604052508101906106409190611fcb565b5060006040518060e00160405280858152602001848152602001428152602001600081526020018460026106749190612003565b81526001602080830182905260006040938401819052338152600982528381208054808501825590825282822086516007909202019081559185015192820192909255918301516002830155606083015160038301556080830151600483015560a08301516005808401805460ff19169215159290921790915560c084015160069093019290925591925060649061070d908690612003565b610717919061201a565b905080600a600082825461072b919061203c565b90915550506005546001600160a01b03166000908152600b60205260408120805483929061075a90849061203c565b909155505060055460405133916000805160206120d78339815191529161078e91899189916001600160a01b03169061204f565b60405180910390a25050506107a260018055565b5050565b6107ae6117ea565b60085483106107cf5760405162461bcd60e51b81526004016104fe90611f0f565b600883815481106107e2576107e2611f38565b600091825260209091206003600490920201015460ff166108155760405162461bcd60e51b81526004016104fe90611f4e565b6002546001600160a01b038281169116148061083e57506003546001600160a01b038281169116145b8061085657506004546001600160a01b038281169116145b6108985760405162461bcd60e51b8152602060048201526013602482015272151bdad95b881b9bdd081cdd5c1c1bdc9d1959606a1b60448201526064016104fe565b6000600884815481106108ad576108ad611f38565b60009182526020918290206040805160808101825260049093029091018054835260018101549383018490526002810154918301919091526003015460ff161515606082015291508310156109145760405162461bcd60e51b81526004016104fe90611f7a565b6040516323b872dd60e01b81526001600160a01b038316906323b872dd9061094490339030908890600401611fa7565b6020604051808303816000875af1158015610963573d6000803e3d6000fd5b505050506040513d601f19601f820116820180604052508101906109879190611fcb565b5060006040518060e00160405280868152602001858152602001428152602001600081526020018560026109bb9190612003565b81526001602080830182905260006040938401819052338152600982528381208054808501825590825282822086516007909202019081559185015192820192909255918301516002830155606083015160038301556080830151600483015560a08301516005808401805460ff19169215159290921790915560c0840151600690930192909255919250606490610a54908790612003565b610a5e919061201a565b905080600a6000828254610a72919061203c565b90915550506001600160a01b0384166000908152600b602052604081208054839290610a9f90849061203c565b909155505060405133906000805160206120d783398151915290610ac89089908990899061204f565b60405180910390a2505050610adc60018055565b505050565b610ae9611814565b610af2826118b9565b6107a282826118c1565b6000610b06611975565b506000805160206120b783398151915290565b610b216119be565b610b2b60006119eb565b565b60096020528160005260406000208181548110610b4957600080fd5b600091825260209091206007909102018054600182015460028301546003840154600485015460058601546006909601549497509295509093909260ff9091169087565b610b956117ea565b6008548110610bb65760405162461bcd60e51b81526004016104fe90611f0f565b60088181548110610bc957610bc9611f38565b600091825260209091206003600490920201015460ff16610bfc5760405162461bcd60e51b81526004016104fe90611f4e565b600060088281548110610c1157610c11611f38565b60009182526020918290206040805160808101825260049093029091018054835260018101549383018490526002810154918301919091526003015460ff16151560608201529150341015610c9b5760405162461bcd60e51b815260206004820152601060248201526f24b739bab33334b1b4b2b73a1021272160811b60448201526064016104fe565b60006040518060e0016040528084815260200134815260200142815260200160008152602001346002610cce9190612003565b81526001602080830182905260006040938401819052338152600982528381208054808501825590825282822086516007909202019081559185015192820192909255918301516002830155606083015160038301556080830151600483015560a08301516005808401805460ff19169215159290921790915560c0840151600690930192909255919250606490610d67903490612003565b610d71919061201a565b905080600a6000828254610d85919061203c565b90915550506000808052600b6020527fdf7de25b7f1fd6d0b5205f0e18f1f35bd7b8d84cce336588d184533ce43a6f768054839290610dc590849061203c565b909155505060405133906000805160206120d783398151915290610def908790349060009061204f565b60405180910390a2505050610e0360018055565b50565b610e3360405180608001604052806000815260200160008152602001600081526020016000151581525090565b6008548210610e545760405162461bcd60e51b81526004016104fe90611f0f565b60088281548110610e6757610e67611f38565b60009182526020918290206040805160808101825260049093029091018054835260018101549383019390935260028301549082015260039091015460ff161515606082015292915050565b610ebb6119be565b610ec36117ea565b6001600160a01b0382166000908152600b6020526040902054811115610f275760405162461bcd60e51b8152602060048201526019602482015278496e73756666696369656e7420706f6f6c2062616c616e636560381b60448201526064016104fe565b6001600160a01b0382166000908152600b602052604081208054839290610f4f90849061206e565b9250508190555080600a6000828254610f68919061206e565b90915550506001600160a01b03821661101657600080546040516001600160a01b039091169083908381818185875af1925050503d8060008114610fc8576040519150601f19603f3d011682016040523d82523d6000602084013e610fcd565b606091505b50509050806110105760405162461bcd60e51b815260206004820152600f60248201526e151c985b9cd9995c8819985a5b1959608a1b60448201526064016104fe565b506110aa565b816001600160a01b031663a9059cbb6110376000546001600160a01b031690565b6040516001600160e01b031960e084901b1681526001600160a01b039091166004820152602481018490526044016020604051808303816000875af1158015611084573d6000803e3d6000fd5b505050506040513d601f19601f820116820180604052508101906110a89190611fcb565b505b6107a260018055565b600881815481106110c357600080fd5b60009182526020909120600490910201805460018201546002830154600390930154919350919060ff1684565b7ff0c57e16840df040f15088dc2f81fe391c3923bec73e23a9662efc9c229c6a008054600160401b810460ff16159067ffffffffffffffff166000811580156111365750825b905060008267ffffffffffffffff1660011480156111535750303b155b905081158015611161575080155b1561117f5760405163f92ee8a960e01b815260040160405180910390fd5b845467ffffffffffffffff1916600117855583156111a957845460ff60401b1916600160401b1785555b6111b16119be565b6001600160a01b038b166111fe5760405162461bcd60e51b8152602060048201526014602482015273496e76616c69642042555344206164647265737360601b60448201526064016104fe565b6001600160a01b038a1661124b5760405162461bcd60e51b8152602060048201526014602482015273496e76616c69642055534454206164647265737360601b60448201526064016104fe565b6001600160a01b0389166112985760405162461bcd60e51b8152602060048201526014602482015273496e76616c69642055534443206164647265737360601b60448201526064016104fe565b6001600160a01b0388166112e45760405162461bcd60e51b8152602060048201526013602482015272496e76616c6964204e584d206164647265737360681b60448201526064016104fe565b6001600160a01b0387166113315760405162461bcd60e51b8152602060048201526014602482015273496e76616c69642057424e42206164647265737360601b60448201526064016104fe565b6001600160a01b0386166113875760405162461bcd60e51b815260206004820152601d60248201527f496e76616c69642050616e63616b65526f75746572206164647265737300000060448201526064016104fe565b600280546001600160a01b03808e166001600160a01b031992831617909255600380548d8416908316179055600480548c8416908316179055600580548b8416908316179055600680548a8416908316179055600780549289169290911691909117905561165860086040518060800160405280600081526020016802b5e3af16b188000081526020016028815260200160011515815250908060018154018082558091505060019003906000526020600020906004020160009091909190915060008201518160000155602082015181600101556040820151816002015560608201518160030160006101000a81548160ff0219169083151502179055505050600860405180608001604052806001815260200168056bc75e2d631000008152602001603c815260200160011515815250908060018154018082558091505060019003906000526020600020906004020160009091909190915060008201518160000155602082015181600101556040820151816002015560608201518160030160006101000a81548160ff02191690831515021790555050506008604051806080016040528060028152602001681b1ae4d6e2ef5000008152602001604b815260200160011515815250908060018154018082558091505060019003906000526020600020906004020160009091909190915060008201518160000155602082015181600101556040820151816002015560608201518160030160006101000a81548160ff02191690831515021790555050506008604051806080016040528060038152602001683635c9adc5dea0000081526020016064815260200160011515815250908060018154018082558091505060019003906000526020600020906004020160009091909190915060008201518160000155602082015181600101556040820151816002015560608201518160030160006101000a81548160ff0219169083151502179055505050565b886001600160a01b03168a6001600160a01b03168c6001600160a01b03167f4ca662a5f1f012e4d740b256559dce10a6b72cdec96be0142f5e2eb49dd37a6e60405160405180910390a483156116e857845460ff60401b19168555604051600181527fc7f505b2f371ae2175ee4913f4499e1f2633a7b5936321eed1cdaeb6115181d29060200160405180910390a15b5050505050505050505050565b6001600160a01b0381166000908152600960209081526040808320805482518185028101850190935280835260609492939192909184015b828210156117a45760008481526020908190206040805160e0810182526007860290920180548352600180820154848601526002820154928401929092526003810154606084015260048101546080840152600581015460ff16151560a08401526006015460c0830152908352909201910161172d565b505050509050919050565b6117b76119be565b6001600160a01b0381166117e1576000604051631e4fbdf760e01b81526004016104fe9190611c76565b610e03816119eb565b60026001540361180d57604051633ee5aeb560e01b815260040160405180910390fd5b6002600155565b306001600160a01b037f000000000000000000000000000000000000000000000000000000000000000016148061189b57507f00000000000000000000000000000000000000000000000000000000000000006001600160a01b031661188f6000805160206120b7833981519152546001600160a01b031690565b6001600160a01b031614155b15610b2b5760405163703e46dd60e11b815260040160405180910390fd5b610e036119be565b816001600160a01b03166352d1902d6040518163ffffffff1660e01b8152600401602060405180830381865afa92505050801561191b575060408051601f3d908101601f1916820190925261191891810190612081565b60015b61193a5781604051634c9c8ce360e01b81526004016104fe9190611c76565b6000805160206120b7833981519152811461196b57604051632a87526960e21b8152600481018290526024016104fe565b610adc8383611a3b565b306001600160a01b037f00000000000000000000000000000000000000000000000000000000000000001614610b2b5760405163703e46dd60e11b815260040160405180910390fd5b6000546001600160a01b03163314610b2b573360405163118cdaa760e01b81526004016104fe9190611c76565b600080546001600160a01b038381166001600160a01b0319831681178455604051919092169283917f8be0079c531659141344cd1fd0a4f28419497f9722a3daafe3b4186f6b6457e09190a35050565b611a4482611a91565b6040516001600160a01b038316907fbc7cd75a20ee27fd9adebab32041f755214dbc6bffa90cc0225b39da2e5c2d3b90600090a2805115611a8957610adc8282611aed565b6107a2611b65565b806001600160a01b03163b600003611abe5780604051634c9c8ce360e01b81526004016104fe9190611c76565b6000805160206120b783398151915280546001600160a01b0319166001600160a01b0392909216919091179055565b6060600080846001600160a01b031684604051611b0a919061209a565b600060405180830381855af49150503d8060008114611b45576040519150601f19603f3d011682016040523d82523d6000602084013e611b4a565b606091505b5091509150611b5a858383611b84565b925050505b92915050565b3415610b2b5760405163b398979f60e01b815260040160405180910390fd5b606082611b9957611b9482611bda565b611bd3565b8151158015611bb057506001600160a01b0384163b155b15611bd05783604051639996b31560e01b81526004016104fe9190611c76565b50805b9392505050565b805115611bea5780518082602001fd5b604051630a12f52160e11b815260040160405180910390fd5b60008060408385031215611c1657600080fd5b50508035926020909101359150565b80356001600160a01b0381168114611c3c57600080fd5b919050565b600080600060608486031215611c5657600080fd5b8335925060208401359150611c6d60408501611c25565b90509250925092565b6001600160a01b0391909116815260200190565b634e487b7160e01b600052604160045260246000fd5b60008060408385031215611cb357600080fd5b611cbc83611c25565b9150602083013567ffffffffffffffff80821115611cd957600080fd5b818501915085601f830112611ced57600080fd5b813581811115611cff57611cff611c8a565b604051601f8201601f19908116603f01168101908382118183101715611d2757611d27611c8a565b81604052828152886020848701011115611d4057600080fd5b8260208601602083013760006020848301015280955050505050509250929050565b600060208284031215611d7457600080fd5b611bd382611c25565b60008060408385031215611d9057600080fd5b611d9983611c25565b946020939093013593505050565b60005b83811015611dc2578181015183820152602001611daa565b50506000910152565b6020815260008251806020840152611dea816040850160208701611da7565b601f01601f19169190910160400192915050565b600060208284031215611e1057600080fd5b5035919050565b60008060008060008060c08789031215611e3057600080fd5b611e3987611c25565b9550611e4760208801611c25565b9450611e5560408801611c25565b9350611e6360608801611c25565b9250611e7160808801611c25565b9150611e7f60a08801611c25565b90509295509295509295565b602080825282518282018190526000919060409081850190868401855b82811015611f025781518051855286810151878601528581015186860152606080820151908601526080808201519086015260a08082015115159086015260c0908101519085015260e09093019290850190600101611ea8565b5091979650505050505050565b6020808252600f908201526e496e76616c6964207061636b61676560881b604082015260600190565b634e487b7160e01b600052603260045260246000fd5b6020808252601290820152715061636b616765206e6f742061637469766560701b604082015260600190565b602080825260139082015272125b9cdd59999a58da595b9d08185b5bdd5b9d606a1b604082015260600190565b6001600160a01b039384168152919092166020820152604081019190915260600190565b600060208284031215611fdd57600080fd5b81518015158114611bd357600080fd5b634e487b7160e01b600052601160045260246000fd5b8082028115828204841417611b5f57611b5f611fed565b60008261203757634e487b7160e01b600052601260045260246000fd5b500490565b80820180821115611b5f57611b5f611fed565b92835260208301919091526001600160a01b0316604082015260600190565b81810381811115611b5f57611b5f611fed565b60006020828403121561209357600080fd5b5051919050565b600082516120ac818460208701611da7565b919091019291505056fe360894a13ba1a3210667c828492db98dca3e2076cc3735a920a3ca505d382bbc1b5f0b91eb89eba71613461202cd1f94972c5cc482c4c3af26f02fa5de87f842a26469706673582212205f276bf679b68dacaa0af768466143541d0a31e624de7cf7e5d7ca3edf05cc1764736f6c63430008140033",
  "linkReferences": {},
  "deployedLinkReferences": {}
}