{
  "_format": "hh-sol-artifact-1",
  "contractName": "ReferralManager",
  "sourceName": "contracts/ReferralManager.sol",
  "abi": [
    {
      "inputs": [],
      "stateMutability": "nonpayable",
      "type": "constructor"
    },
    {
      "inputs": [
        {
          "internalType": "address",
          "name": "target",
          "type": "address"
        }
      ],
      "name": "AddressEmptyCode",
      "type": "error"
    },
    {
      "inputs": [
        {
          "internalType": "address",
          "name": "implementation",
          "type": "address"
        }
      ],
      "name": "ERC1967InvalidImplementation",
      "type": "error"
    },
    {
      "inputs": [],
      "name": "ERC1967NonPayable",
      "type": "error"
    },
    {
      "inputs": [],
      "name": "FailedInnerCall",
      "type": "error"
    },
    {
      "inputs": [],
      "name": "InvalidInitialization",
      "type": "error"
    },
    {
      "inputs": [],
      "name": "NotInitializing",
      "type": "error"
    },
    {
      "inputs": [
        {
          "internalType": "address",
          "name": "owner",
          "type": "address"
        }
      ],
      "name": "OwnableInvalidOwner",
      "type": "error"
    },
    {
      "inputs": [
        {
          "internalType": "address",
          "name": "account",
          "type": "address"
        }
      ],
      "name": "OwnableUnauthorizedAccount",
      "type": "error"
    },
    {
      "inputs": [],
      "name": "ReentrancyGuardReentrantCall",
      "type": "error"
    },
    {
      "inputs": [],
      "name": "UUPSUnauthorizedCallContext",
      "type": "error"
    },
    {
      "inputs": [
        {
          "internalType": "bytes32",
          "name": "slot",
          "type": "bytes32"
        }
      ],
      "name": "UUPSUnsupportedProxiableUUID",
      "type": "error"
    },
    {
      "anonymous": false,
      "inputs": [
        {
          "indexed": true,
          "internalType": "address",
          "name": "parent",
          "type": "address"
        },
        {
          "indexed": true,
          "internalType": "address",
          "name": "child",
          "type": "address"
        },
        {
          "indexed": false,
          "internalType": "bool",
          "name": "isLeftChild",
          "type": "bool"
        }
      ],
      "name": "BinaryTreeUpdated",
      "type": "event"
    },
    {
      "anonymous": false,
      "inputs": [
        {
          "indexed": true,
          "internalType": "address",
          "name": "user",
          "type": "address"
        },
        {
          "indexed": false,
          "internalType": "uint256",
          "name": "amount",
          "type": "uint256"
        }
      ],
      "name": "BonusWithdrawn",
      "type": "event"
    },
    {
      "anonymous": false,
      "inputs": [
        {
          "indexed": true,
          "internalType": "address",
          "name": "nxmToken",
          "type": "address"
        }
      ],
      "name": "ContractInitialized",
      "type": "event"
    },
    {
      "anonymous": false,
      "inputs": [
        {
          "indexed": true,
          "internalType": "address",
          "name": "user",
          "type": "address"
        },
        {
          "indexed": false,
          "internalType": "uint256",
          "name": "amount",
          "type": "uint256"
        }
      ],
      "name": "DirectBonusGenerated",
      "type": "event"
    },
    {
      "anonymous": false,
      "inputs": [
        {
          "indexed": false,
          "internalType": "uint64",
          "name": "version",
          "type": "uint64"
        }
      ],
      "name": "Initialized",
      "type": "event"
    },
    {
      "anonymous": false,
      "inputs": [
        {
          "indexed": true,
          "internalType": "address",
          "name": "user",
          "type": "address"
        },
        {
          "indexed": false,
          "internalType": "uint256",
          "name": "amount",
          "type": "uint256"
        }
      ],
      "name": "MatchingBonusGenerated",
      "type": "event"
    },
    {
      "anonymous": false,
      "inputs": [
        {
          "indexed": true,
          "internalType": "address",
          "name": "previousOwner",
          "type": "address"
        },
        {
          "indexed": true,
          "internalType": "address",
          "name": "newOwner",
          "type": "address"
        }
      ],
      "name": "OwnershipTransferred",
      "type": "event"
    },
    {
      "anonymous": false,
      "inputs": [
        {
          "indexed": true,
          "internalType": "address",
          "name": "referrer",
          "type": "address"
        },
        {
          "indexed": true,
          "internalType": "address",
          "name": "referee",
          "type": "address"
        }
      ],
      "name": "ReferralRegistered",
      "type": "event"
    },
    {
      "anonymous": false,
      "inputs": [
        {
          "indexed": true,
          "internalType": "address",
          "name": "implementation",
          "type": "address"
        }
      ],
      "name": "Upgraded",
      "type": "event"
    },
    {
      "inputs": [],
      "name": "DIRECT_BONUS_PERCENT",
      "outputs": [
        {
          "internalType": "uint256",
          "name": "",
          "type": "uint256"
        }
      ],
      "stateMutability": "view",
      "type": "function"
    },
    {
      "inputs": [],
      "name": "MATCHING_BONUS_PERCENT",
      "outputs": [
        {
          "internalType": "uint256",
          "name": "",
          "type": "uint256"
        }
      ],
      "stateMutability": "view",
      "type": "function"
    },
    {
      "inputs": [],
      "name": "NXM",
      "outputs": [
        {
          "internalType": "address",
          "name": "",
          "type": "address"
        }
      ],
      "stateMutability": "view",
      "type": "function"
    },
    {
      "inputs": [],
      "name": "UPGRADE_INTERFACE_VERSION",
      "outputs": [
        {
          "internalType": "string",
          "name": "",
          "type": "string"
        }
      ],
      "stateMutability": "view",
      "type": "function"
    },
    {
      "inputs": [
        {
          "internalType": "address",
          "name": "",
          "type": "address"
        }
      ],
      "name": "bonusBalance",
      "outputs": [
        {
          "internalType": "uint256",
          "name": "",
          "type": "uint256"
        }
      ],
      "stateMutability": "view",
      "type": "function"
    },
    {
      "inputs": [
        {
          "internalType": "address",
          "name": "_referrer",
          "type": "address"
        },
        {
          "internalType": "uint256",
          "name": "_packageAmount",
          "type": "uint256"
        }
      ],
      "name": "generateDirectBonus",
      "outputs": [],
      "stateMutability": "nonpayable",
      "type": "function"
    },
    {
      "inputs": [
        {
          "internalType": "address",
          "name": "_user",
          "type": "address"
        },
        {
          "internalType": "uint256",
          "name": "_packageAmount",
          "type": "uint256"
        }
      ],
      "name": "generateMatchingBonus",
      "outputs": [],
      "stateMutability": "nonpayable",
      "type": "function"
    },
    {
      "inputs": [
        {
          "internalType": "address",
          "name": "_user",
          "type": "address"
        }
      ],
      "name": "getDirectReferrals",
      "outputs": [
        {
          "internalType": "address[]",
          "name": "",
          "type": "address[]"
        }
      ],
      "stateMutability": "view",
      "type": "function"
    },
    {
      "inputs": [
        {
          "internalType": "address",
          "name": "_user",
          "type": "address"
        }
      ],
      "name": "getMatchingBonusInfo",
      "outputs": [
        {
          "internalType": "uint256",
          "name": "total",
          "type": "uint256"
        },
        {
          "internalType": "uint256",
          "name": "pairs",
          "type": "uint256"
        }
      ],
      "stateMutability": "view",
      "type": "function"
    },
    {
      "inputs": [
        {
          "internalType": "address",
          "name": "_user",
          "type": "address"
        }
      ],
      "name": "getUserReferralInfo",
      "outputs": [
        {
          "components": [
            {
              "internalType": "address",
              "name": "referrer",
              "type": "address"
            },
            {
              "internalType": "address",
              "name": "leftChild",
              "type": "address"
            },
            {
              "internalType": "address",
              "name": "rightChild",
              "type": "address"
            },
            {
              "internalType": "uint256",
              "name": "leftSubtreeSize",
              "type": "uint256"
            },
            {
              "internalType": "uint256",
              "name": "rightSubtreeSize",
              "type": "uint256"
            },
            {
              "internalType": "uint256",
              "name": "matchingBonus",
              "type": "uint256"
            },
            {
              "internalType": "uint256",
              "name": "pairsMatched",
              "type": "uint256"
            },
            {
              "internalType": "bool",
              "name": "exists",
              "type": "bool"
            }
          ],
          "internalType": "struct ReferralManager.ReferralNode",
          "name": "node",
          "type": "tuple"
        },
        {
          "components": [
            {
              "internalType": "address[]",
              "name": "directReferrals",
              "type": "address[]"
            },
            {
              "internalType": "uint256",
              "name": "totalMatchingBonus",
              "type": "uint256"
            },
            {
              "internalType": "uint256",
              "name": "totalDirectBonus",
              "type": "uint256"
            },
            {
              "internalType": "uint256",
              "name": "pendingBonus",
              "type": "uint256"
            }
          ],
          "internalType": "struct ReferralManager.UserReferral",
          "name": "referral",
          "type": "tuple"
        },
        {
          "internalType": "uint256",
          "name": "bonusBalance_",
          "type": "uint256"
        }
      ],
      "stateMutability": "view",
      "type": "function"
    },
    {
      "inputs": [
        {
          "internalType": "address",
          "name": "_nxm",
          "type": "address"
        }
      ],
      "name": "initialize",
      "outputs": [],
      "stateMutability": "nonpayable",
      "type": "function"
    },
    {
      "inputs": [
        {
          "internalType": "address",
          "name": "_user",
          "type": "address"
        }
      ],
      "name": "isRegistered",
      "outputs": [
        {
          "internalType": "bool",
          "name": "",
          "type": "bool"
        }
      ],
      "stateMutability": "view",
      "type": "function"
    },
    {
      "inputs": [],
      "name": "owner",
      "outputs": [
        {
          "internalType": "address",
          "name": "",
          "type": "address"
        }
      ],
      "stateMutability": "view",
      "type": "function"
    },
    {
      "inputs": [],
      "name": "proxiableUUID",
      "outputs": [
        {
          "internalType": "bytes32",
          "name": "",
          "type": "bytes32"
        }
      ],
      "stateMutability": "view",
      "type": "function"
    },
    {
      "inputs": [
        {
          "internalType": "address",
          "name": "",
          "type": "address"
        }
      ],
      "name": "referralTree",
      "outputs": [
        {
          "internalType": "address",
          "name": "referrer",
          "type": "address"
        },
        {
          "internalType": "address",
          "name": "leftChild",
          "type": "address"
        },
        {
          "internalType": "address",
          "name": "rightChild",
          "type": "address"
        },
        {
          "internalType": "uint256",
          "name": "leftSubtreeSize",
          "type": "uint256"
        },
        {
          "internalType": "uint256",
          "name": "rightSubtreeSize",
          "type": "uint256"
        },
        {
          "internalType": "uint256",
          "name": "matchingBonus",
          "type": "uint256"
        },
        {
          "internalType": "uint256",
          "name": "pairsMatched",
          "type": "uint256"
        },
        {
          "internalType": "bool",
          "name": "exists",
          "type": "bool"
        }
      ],
      "stateMutability": "view",
      "type": "function"
    },
    {
      "inputs": [
        {
          "internalType": "address",
          "name": "_referrer",
          "type": "address"
        },
        {
          "internalType": "address",
          "name": "_user",
          "type": "address"
        }
      ],
      "name": "registerReferral",
      "outputs": [],
      "stateMutability": "nonpayable",
      "type": "function"
    },
    {
      "inputs": [],
      "name": "renounceOwnership",
      "outputs": [],
      "stateMutability": "nonpayable",
      "type": "function"
    },
    {
      "inputs": [],
      "name": "totalBonusPaidOut",
      "outputs": [
        {
          "internalType": "uint256",
          "name": "",
          "type": "uint256"
        }
      ],
      "stateMutability": "view",
      "type": "function"
    },
    {
      "inputs": [
        {
          "internalType": "address",
          "name": "newOwner",
          "type": "address"
        }
      ],
      "name": "transferOwnership",
      "outputs": [],
      "stateMutability": "nonpayable",
      "type": "function"
    },
    {
      "inputs": [
        {
          "internalType": "address",
          "name": "newImplementation",
          "type": "address"
        },
        {
          "internalType": "bytes",
          "name": "data",
          "type": "bytes"
        }
      ],
      "name": "upgradeToAndCall",
      "outputs": [],
      "stateMutability": "payable",
      "type": "function"
    },
    {
      "inputs": [
        {
          "internalType": "address",
          "name": "",
          "type": "address"
        }
      ],
      "name": "userReferrals",
      "outputs": [
        {
          "internalType": "uint256",
          "name": "totalMatchingBonus",
          "type": "uint256"
        },
        {
          "internalType": "uint256",
          "name": "totalDirectBonus",
          "type": "uint256"
        },
        {
          "internalType": "uint256",
          "name": "pendingBonus",
          "type": "uint256"
        }
      ],
      "stateMutability": "view",
      "type": "function"
    },
    {
      "inputs": [
        {
          "internalType": "uint256",
          "name": "_amount",
          "type": "uint256"
        }
      ],
      "name": "withdrawBonus",
      "outputs": [],
      "stateMutability": "nonpayable",
      "type": "function"
    }
  ],
  "bytecode": "0x60a06040523060805234801561001457600080fd5b50338061003b57604051631e4fbdf760e01b81526000600482015260240160405180910390fd5b6100448161004e565b506001805561009e565b600080546001600160a01b038381166001600160a01b0319831681178455604051919092169283917f8be0079c531659141344cd1fd0a4f28419497f9722a3daafe3b4186f6b6457e09190a35050565b6080516119a96100c76000396000818161101b01528181611044015261117c01526119a96000f3fe6080604052600436106101355760003560e01c8063b298b771116100ab578063d35527121161006f578063d35527121461049b578063e3f131fc146104ca578063e86002ec146104e0578063eca77d9b146104f6578063f2fde38b14610516578063f524dc3b1461053657600080fd5b8063b298b771146103b5578063c3c5a547146103e2578063c4d66de81461042e578063caeadc071461044e578063d2c8e0e51461046e57600080fd5b806372d32968116100fd57806372d3296814610206578063804daa31146102265780638b7bb44a1461027c5780638da5cb5b1461033a578063a675d06814610361578063ad3cb1cc1461037757600080fd5b80634f1ef2861461013a57806352d1902d1461014f5780635603b9f9146101775780636b277e3714610197578063715018a6146101f1575b600080fd5b61014d61014836600461155d565b610556565b005b34801561015b57600080fd5b50610164610575565b6040519081526020015b60405180910390f35b34801561018357600080fd5b5061014d61019236600461161f565b610592565b3480156101a357600080fd5b506101d66101b2366004611652565b60046020526000908152604090206001810154600282015460039092015490919083565b6040805193845260208401929092529082015260600161016e565b3480156101fd57600080fd5b5061014d6107ef565b34801561021257600080fd5b5061014d61022136600461166d565b610803565b34801561023257600080fd5b50610267610241366004611652565b6001600160a01b0316600090815260036020526040902060058101546006909101549091565b6040805192835260208301919091520161016e565b34801561028857600080fd5b506102ee610297366004611652565b6003602081905260009182526040909120805460018201546002830154938301546004840154600585015460068601546007909601546001600160a01b039586169794861696959094169492939192909160ff1688565b604080516001600160a01b03998a168152978916602089015295909716948601949094526060850192909252608084015260a083015260c082015290151560e08201526101000161016e565b34801561034657600080fd5b506000546001600160a01b03165b60405161016e9190611686565b34801561036d57600080fd5b506101646101f481565b34801561038357600080fd5b506103a8604051806040016040528060058152602001640352e302e360dc1b81525081565b60405161016e91906116be565b3480156103c157600080fd5b506101646103d0366004611652565b60056020526000908152604090205481565b3480156103ee57600080fd5b5061041e6103fd366004611652565b6001600160a01b031660009081526003602052604090206007015460ff1690565b604051901515815260200161016e565b34801561043a57600080fd5b5061014d610449366004611652565b61099b565b34801561045a57600080fd5b50600254610354906001600160a01b031681565b34801561047a57600080fd5b5061048e610489366004611652565b610b43565b60405161016e9190611735565b3480156104a757600080fd5b506104bb6104b6366004611652565b610bb9565b60405161016e93929190611787565b3480156104d657600080fd5b506101646103e881565b3480156104ec57600080fd5b5061016460065481565b34801561050257600080fd5b5061014d610511366004611813565b610d45565b34801561052257600080fd5b5061014d610531366004611652565b610ed2565b34801561054257600080fd5b5061014d610551366004611813565b610f0d565b61055e611010565b610567826110b5565b61057182826110bd565b5050565b600061057f611171565b5060008051602061195483398151915290565b61059a6111ba565b6001600160a01b0382166105e85760405162461bcd60e51b815260206004820152601060248201526f24b73b30b634b2103932b332b93932b960811b60448201526064015b60405180910390fd5b6001600160a01b03811661062d5760405162461bcd60e51b815260206004820152600c60248201526b24b73b30b634b2103ab9b2b960a11b60448201526064016105df565b806001600160a01b0316826001600160a01b0316036106865760405162461bcd60e51b815260206004820152601560248201527421b0b73737ba103932b332b9103cb7bab939b2b63360591b60448201526064016105df565b6001600160a01b03811660009081526003602052604090206007015460ff16156106ec5760405162461bcd60e51b8152602060048201526017602482015276155cd95c88185b1c9958591e481c9959da5cdd195c9959604a1b60448201526064016105df565b6001600160a01b03821660009081526003602052604090206007015460ff168061072357506000546001600160a01b038381169116145b61073f5760405162461bcd60e51b81526004016105df9061183d565b6001600160a01b03808216600081815260036020908152604080832080549588166001600160a01b0319968716811782556007909101805460ff191660019081179091559084526004835290832080549182018155835291200180549092161790556107ab82826111e7565b806001600160a01b0316826001600160a01b03167f5f1ca2fcc108b751843a763e60d2201f593516109d7dbb1b700468f2d4190bb760405160405180910390a35050565b6107f76111ba565b61080160006112e9565b565b61080b611339565b3360009081526005602052604090205481111561086a5760405162461bcd60e51b815260206004820152601a60248201527f496e73756666696369656e7420626f6e75732062616c616e636500000000000060448201526064016105df565b3360009081526005602052604081208054839290610889908490611884565b9250508190555080600660008282546108a29190611897565b909155505060025460405163a9059cbb60e01b8152336004820152602481018390526001600160a01b039091169063a9059cbb906044016020604051808303816000875af11580156108f8573d6000803e3d6000fd5b505050506040513d601f19601f8201168201806040525081019061091c91906118aa565b61095a5760405162461bcd60e51b815260206004820152600f60248201526e151c985b9cd9995c8819985a5b1959608a1b60448201526064016105df565b60405181815233907fa48e1ff74bd0f1b584708d4ea741299b0e243b1dc795f94756cb5fe9147cf80e9060200160405180910390a261099860018055565b50565b7ff0c57e16840df040f15088dc2f81fe391c3923bec73e23a9662efc9c229c6a008054600160401b810460ff16159067ffffffffffffffff166000811580156109e15750825b905060008267ffffffffffffffff1660011480156109fe5750303b155b905081158015610a0c575080155b15610a2a5760405163f92ee8a960e01b815260040160405180910390fd5b845467ffffffffffffffff191660011785558315610a5457845460ff60401b1916600160401b1785555b610a5c6111ba565b6001600160a01b038616610aae5760405162461bcd60e51b8152602060048201526019602482015278496e76616c6964204e584d20746f6b656e206164647265737360381b60448201526064016105df565b600280546001600160a01b0319166001600160a01b0388169081179091556040517fb8bb5a08c752924168166e254455ca6708ef2ac4cfd39bba39eb5a5b89f0cbd690600090a28315610b3b57845460ff60401b19168555604051600181527fc7f505b2f371ae2175ee4913f4499e1f2633a7b5936321eed1cdaeb6115181d29060200160405180910390a15b505050505050565b6001600160a01b038116600090815260046020908152604091829020805483518184028101840190945280845260609392830182828015610bad57602002820191906000526020600020905b81546001600160a01b03168152600190910190602001808311610b8f575b50505050509050919050565b6040805161010081018252600080825260208201819052918101829052606081018290526080810182905260a0810182905260c0810182905260e0810191909152610c256040518060800160405280606081526020016000815260200160008152602001600081525090565b6001600160a01b038084166000908152600360208181526040808420600480845282862060058086528488205485516101008101875285548b16815260018601548b16818901526002860154909a168a8701529684015460608a0152918301546080808a01919091529183015460a0808a0191909152600684015460c08a015260079093015460ff16151560e0890152835181549586028101840190945290830184815295969590949385928492918491840182828015610d0f57602002820191906000526020600020905b81546001600160a01b03168152600190910190602001808311610cf1575b50505050508152602001600182015481526020016002820154815260200160038201548152505091509250925092509193909250565b610d4d6111ba565b6001600160a01b03821660009081526003602052604090206007015460ff16610dae5760405162461bcd60e51b8152602060048201526013602482015272155cd95c881b9bdd081c9959da5cdd195c9959606a1b60448201526064016105df565b6001600160a01b038083166000908152600360205260409020600181015490911615801590610de9575060028101546001600160a01b031615155b15610ecd576000612710610dff6101f4856118cc565b610e0991906118e3565b905080826005016000828254610e1f9190611897565b9091555050600682018054906000610e3683611905565b90915550506001600160a01b03841660009081526005602052604081208054839290610e63908490611897565b90915550506040518181526001600160a01b038516907f3c23e21d4044d548d4d521489b2e63e178afe5ee9c43ccc970fd442acea6687f9060200160405180910390a281546001600160a01b031615610ecb578154610ecb906001600160a01b031684610d45565b505b505050565b610eda6111ba565b6001600160a01b038116610f04576000604051631e4fbdf760e01b81526004016105df9190611686565b610998816112e9565b610f156111ba565b6001600160a01b03821660009081526003602052604090206007015460ff16610f505760405162461bcd60e51b81526004016105df9061183d565b6000612710610f616103e8846118cc565b610f6b91906118e3565b6001600160a01b038416600090815260046020526040812060020180549293508392909190610f9b908490611897565b90915550506001600160a01b03831660009081526005602052604081208054839290610fc8908490611897565b90915550506040518181526001600160a01b038416907fcd0e0ad636b9e67ca69de7b08832dabaa9b4213d34d3b4037e533554dc7e273f9060200160405180910390a2505050565b306001600160a01b037f000000000000000000000000000000000000000000000000000000000000000016148061109757507f00000000000000000000000000000000000000000000000000000000000000006001600160a01b031661108b600080516020611954833981519152546001600160a01b031690565b6001600160a01b031614155b156108015760405163703e46dd60e11b815260040160405180910390fd5b6109986111ba565b816001600160a01b03166352d1902d6040518163ffffffff1660e01b8152600401602060405180830381865afa925050508015611117575060408051601f3d908101601f191682019092526111149181019061191e565b60015b6111365781604051634c9c8ce360e01b81526004016105df9190611686565b600080516020611954833981519152811461116757604051632a87526960e21b8152600481018290526024016105df565b610ecd8383611363565b306001600160a01b037f000000000000000000000000000000000000000000000000000000000000000016146108015760405163703e46dd60e11b815260040160405180910390fd5b6000546001600160a01b03163314610801573360405163118cdaa760e01b81526004016105df9190611686565b6001600160a01b03821660009081526003602081905260409091206004810154918101549091106112825760018101546001600160a01b031661124e57600180820180546001600160a01b0385166001600160a01b03199091161790556003820155505050565b6001810154611266906001600160a01b0316836111e7565b60038101805490600061127883611905565b9190505550505050565b60028101546001600160a01b03166112bf576002810180546001600160a01b0384166001600160a01b031990911617905560016004820155505050565b60028101546112d7906001600160a01b0316836111e7565b60048101805490600061127883611905565b600080546001600160a01b038381166001600160a01b0319831681178455604051919092169283917f8be0079c531659141344cd1fd0a4f28419497f9722a3daafe3b4186f6b6457e09190a35050565b60026001540361135c57604051633ee5aeb560e01b815260040160405180910390fd5b6002600155565b61136c826113b9565b6040516001600160a01b038316907fbc7cd75a20ee27fd9adebab32041f755214dbc6bffa90cc0225b39da2e5c2d3b90600090a28051156113b157610ecd8282611415565b61057161148d565b806001600160a01b03163b6000036113e65780604051634c9c8ce360e01b81526004016105df9190611686565b60008051602061195483398151915280546001600160a01b0319166001600160a01b0392909216919091179055565b6060600080846001600160a01b0316846040516114329190611937565b600060405180830381855af49150503d806000811461146d576040519150601f19603f3d011682016040523d82523d6000602084013e611472565b606091505b50915091506114828583836114ac565b925050505b92915050565b34156108015760405163b398979f60e01b815260040160405180910390fd5b6060826114c1576114bc82611502565b6114fb565b81511580156114d857506001600160a01b0384163b155b156114f85783604051639996b31560e01b81526004016105df9190611686565b50805b9392505050565b8051156115125780518082602001fd5b604051630a12f52160e11b815260040160405180910390fd5b80356001600160a01b038116811461154257600080fd5b919050565b634e487b7160e01b600052604160045260246000fd5b6000806040838503121561157057600080fd5b6115798361152b565b9150602083013567ffffffffffffffff8082111561159657600080fd5b818501915085601f8301126115aa57600080fd5b8135818111156115bc576115bc611547565b604051601f8201601f19908116603f011681019083821181831017156115e4576115e4611547565b816040528281528860208487010111156115fd57600080fd5b8260208601602083013760006020848301015280955050505050509250929050565b6000806040838503121561163257600080fd5b61163b8361152b565b91506116496020840161152b565b90509250929050565b60006020828403121561166457600080fd5b6114fb8261152b565b60006020828403121561167f57600080fd5b5035919050565b6001600160a01b0391909116815260200190565b60005b838110156116b557818101518382015260200161169d565b50506000910152565b60208152600082518060208401526116dd81604085016020870161169a565b601f01601f19169190910160400192915050565b600081518084526020808501945080840160005b8381101561172a5781516001600160a01b031687529582019590820190600101611705565b509495945050505050565b6020815260006114fb60208301846116f1565b600081516080845261175d60808501826116f1565b90506020830151602085015260408301516040850152606083015160608501528091505092915050565b600061014060018060a01b0380875116845280602088015116602085015280604088015116604085015250606086015160608401526080860151608084015260a086015160a084015260c086015160c084015260e08601516117ed60e085018215159052565b508061010084015261180181840186611748565b91505082610120830152949350505050565b6000806040838503121561182657600080fd5b61182f8361152b565b946020939093013593505050565b602080825260179082015276149959995c9c995c881b9bdd081c9959da5cdd195c9959604a1b604082015260600190565b634e487b7160e01b600052601160045260246000fd5b818103818111156114875761148761186e565b808201808211156114875761148761186e565b6000602082840312156118bc57600080fd5b815180151581146114fb57600080fd5b80820281158282048414176114875761148761186e565b60008261190057634e487b7160e01b600052601260045260246000fd5b500490565b6000600182016119175761191761186e565b5060010190565b60006020828403121561193057600080fd5b5051919050565b6000825161194981846020870161169a565b919091019291505056fe360894a13ba1a3210667c828492db98dca3e2076cc3735a920a3ca505d382bbca26469706673582212203dae0460ae75fd7b7c1c3052eb067c8f4356a1ee393ccc45d959dfa4be7d28fe64736f6c63430008140033",
  "linkReferences": {},
  "deployedLinkReferences": {}
}