{
  "_format": "hh-sol-artifact-1",
  "contractName": "RewardLevels",
  "sourceName": "contracts/RewardLevels.sol",
  "abi": [
    {
      "inputs": [],
      "stateMutability": "nonpayable",
      "type": "constructor"
    },
    {
      "inputs": [
        {
          "internalType": "address",
          "name": "target",
          "type": "address"
        }
      ],
      "name": "AddressEmptyCode",
      "type": "error"
    },
    {
      "inputs": [
        {
          "internalType": "address",
          "name": "implementation",
          "type": "address"
        }
      ],
      "name": "ERC1967InvalidImplementation",
      "type": "error"
    },
    {
      "inputs": [],
      "name": "ERC1967NonPayable",
      "type": "error"
    },
    {
      "inputs": [],
      "name": "FailedInnerCall",
      "type": "error"
    },
    {
      "inputs": [],
      "name": "InvalidInitialization",
      "type": "error"
    },
    {
      "inputs": [],
      "name": "NotInitializing",
      "type": "error"
    },
    {
      "inputs": [
        {
          "internalType": "address",
          "name": "owner",
          "type": "address"
        }
      ],
      "name": "OwnableInvalidOwner",
      "type": "error"
    },
    {
      "inputs": [
        {
          "internalType": "address",
          "name": "account",
          "type": "address"
        }
      ],
      "name": "OwnableUnauthorizedAccount",
      "type": "error"
    },
    {
      "inputs": [],
      "name": "ReentrancyGuardReentrantCall",
      "type": "error"
    },
    {
      "inputs": [],
      "name": "UUPSUnauthorizedCallContext",
      "type": "error"
    },
    {
      "inputs": [
        {
          "internalType": "bytes32",
          "name": "slot",
          "type": "bytes32"
        }
      ],
      "name": "UUPSUnsupportedProxiableUUID",
      "type": "error"
    },
    {
      "anonymous": false,
      "inputs": [
        {
          "indexed": true,
          "internalType": "address",
          "name": "nxm",
          "type": "address"
        },
        {
          "indexed": true,
          "internalType": "address",
          "name": "referralManager",
          "type": "address"
        }
      ],
      "name": "ContractInitialized",
      "type": "event"
    },
    {
      "anonymous": false,
      "inputs": [
        {
          "indexed": false,
          "internalType": "uint64",
          "name": "version",
          "type": "uint64"
        }
      ],
      "name": "Initialized",
      "type": "event"
    },
    {
      "anonymous": false,
      "inputs": [
        {
          "indexed": true,
          "internalType": "address",
          "name": "user",
          "type": "address"
        },
        {
          "indexed": false,
          "internalType": "uint256",
          "name": "level",
          "type": "uint256"
        },
        {
          "indexed": false,
          "internalType": "string",
          "name": "rankTitle",
          "type": "string"
        }
      ],
      "name": "LevelUnlocked",
      "type": "event"
    },
    {
      "anonymous": false,
      "inputs": [
        {
          "indexed": true,
          "internalType": "address",
          "name": "previousOwner",
          "type": "address"
        },
        {
          "indexed": true,
          "internalType": "address",
          "name": "newOwner",
          "type": "address"
        }
      ],
      "name": "OwnershipTransferred",
      "type": "event"
    },
    {
      "anonymous": false,
      "inputs": [
        {
          "indexed": true,
          "internalType": "address",
          "name": "user",
          "type": "address"
        },
        {
          "indexed": false,
          "internalType": "uint256",
          "name": "level",
          "type": "uint256"
        },
        {
          "indexed": false,
          "internalType": "uint256",
          "name": "cashReward",
          "type": "uint256"
        },
        {
          "indexed": false,
          "internalType": "uint256",
          "name": "nxmReward",
          "type": "uint256"
        }
      ],
      "name": "RewardClaimed",
      "type": "event"
    },
    {
      "anonymous": false,
      "inputs": [
        {
          "indexed": true,
          "internalType": "address",
          "name": "user",
          "type": "address"
        },
        {
          "indexed": false,
          "internalType": "uint256",
          "name": "level",
          "type": "uint256"
        }
      ],
      "name": "ShowcaseUserSet",
      "type": "event"
    },
    {
      "anonymous": false,
      "inputs": [
        {
          "indexed": true,
          "internalType": "address",
          "name": "implementation",
          "type": "address"
        }
      ],
      "name": "Upgraded",
      "type": "event"
    },
    {
      "anonymous": false,
      "inputs": [
        {
          "indexed": true,
          "internalType": "address",
          "name": "user",
          "type": "address"
        },
        {
          "indexed": false,
          "internalType": "uint256",
          "name": "newLevel",
          "type": "uint256"
        },
        {
          "indexed": false,
          "internalType": "uint256",
          "name": "pairsAchieved",
          "type": "uint256"
        }
      ],
      "name": "UserLevelUpdated",
      "type": "event"
    },
    {
      "inputs": [],
      "name": "NXM",
      "outputs": [
        {
          "internalType": "address",
          "name": "",
          "type": "address"
        }
      ],
      "stateMutability": "view",
      "type": "function"
    },
    {
      "inputs": [],
      "name": "UPGRADE_INTERFACE_VERSION",
      "outputs": [
        {
          "internalType": "string",
          "name": "",
          "type": "string"
        }
      ],
      "stateMutability": "view",
      "type": "function"
    },
    {
      "inputs": [
        {
          "internalType": "address",
          "name": "_user",
          "type": "address"
        },
        {
          "internalType": "uint256",
          "name": "_level",
          "type": "uint256"
        }
      ],
      "name": "canClaimReward",
      "outputs": [
        {
          "internalType": "bool",
          "name": "",
          "type": "bool"
        }
      ],
      "stateMutability": "view",
      "type": "function"
    },
    {
      "inputs": [
        {
          "internalType": "uint256",
          "name": "_level",
          "type": "uint256"
        }
      ],
      "name": "claimLevelReward",
      "outputs": [],
      "stateMutability": "nonpayable",
      "type": "function"
    },
    {
      "inputs": [],
      "name": "getAllRewardLevels",
      "outputs": [
        {
          "components": [
            {
              "internalType": "uint256",
              "name": "id",
              "type": "uint256"
            },
            {
              "internalType": "string",
              "name": "rankTitle",
              "type": "string"
            },
            {
              "internalType": "uint256",
              "name": "requiredPairs",
              "type": "uint256"
            },
            {
              "internalType": "string",
              "name": "rewardType",
              "type": "string"
            },
            {
              "internalType": "uint256",
              "name": "cashReward",
              "type": "uint256"
            },
            {
              "internalType": "uint256",
              "name": "nxmReward",
              "type": "uint256"
            },
            {
              "internalType": "string",
              "name": "additionalBenefits",
              "type": "string"
            },
            {
              "internalType": "bool",
              "name": "active",
              "type": "bool"
            }
          ],
          "internalType": "struct RewardLevels.RewardLevel[]",
          "name": "",
          "type": "tuple[]"
        }
      ],
      "stateMutability": "view",
      "type": "function"
    },
    {
      "inputs": [
        {
          "internalType": "uint256",
          "name": "_level",
          "type": "uint256"
        }
      ],
      "name": "getRewardLevel",
      "outputs": [
        {
          "components": [
            {
              "internalType": "uint256",
              "name": "id",
              "type": "uint256"
            },
            {
              "internalType": "string",
              "name": "rankTitle",
              "type": "string"
            },
            {
              "internalType": "uint256",
              "name": "requiredPairs",
              "type": "uint256"
            },
            {
              "internalType": "string",
              "name": "rewardType",
              "type": "string"
            },
            {
              "internalType": "uint256",
              "name": "cashReward",
              "type": "uint256"
            },
            {
              "internalType": "uint256",
              "name": "nxmReward",
              "type": "uint256"
            },
            {
              "internalType": "string",
              "name": "additionalBenefits",
              "type": "string"
            },
            {
              "internalType": "bool",
              "name": "active",
              "type": "bool"
            }
          ],
          "internalType": "struct RewardLevels.RewardLevel",
          "name": "",
          "type": "tuple"
        }
      ],
      "stateMutability": "view",
      "type": "function"
    },
    {
      "inputs": [
        {
          "internalType": "address",
          "name": "_user",
          "type": "address"
        }
      ],
      "name": "getUserLevelInfo",
      "outputs": [
        {
          "internalType": "uint256",
          "name": "currentLevel",
          "type": "uint256"
        },
        {
          "internalType": "string",
          "name": "rankTitle",
          "type": "string"
        },
        {
          "internalType": "uint256",
          "name": "pairsAchieved",
          "type": "uint256"
        },
        {
          "internalType": "uint256",
          "name": "nextLevelPairs",
          "type": "uint256"
        },
        {
          "internalType": "uint256",
          "name": "totalRewardsClaimed",
          "type": "uint256"
        }
      ],
      "stateMutability": "view",
      "type": "function"
    },
    {
      "inputs": [
        {
          "internalType": "address",
          "name": "_nxm",
          "type": "address"
        },
        {
          "internalType": "address",
          "name": "_referralManager",
          "type": "address"
        }
      ],
      "name": "initialize",
      "outputs": [],
      "stateMutability": "nonpayable",
      "type": "function"
    },
    {
      "inputs": [
        {
          "internalType": "address",
          "name": "",
          "type": "address"
        }
      ],
      "name": "isShowcaseUser",
      "outputs": [
        {
          "internalType": "bool",
          "name": "",
          "type": "bool"
        }
      ],
      "stateMutability": "view",
      "type": "function"
    },
    {
      "inputs": [],
      "name": "owner",
      "outputs": [
        {
          "internalType": "address",
          "name": "",
          "type": "address"
        }
      ],
      "stateMutability": "view",
      "type": "function"
    },
    {
      "inputs": [],
      "name": "proxiableUUID",
      "outputs": [
        {
          "internalType": "bytes32",
          "name": "",
          "type": "bytes32"
        }
      ],
      "stateMutability": "view",
      "type": "function"
    },
    {
      "inputs": [],
      "name": "referralManager",
      "outputs": [
        {
          "internalType": "contract IReferralManager",
          "name": "",
          "type": "address"
        }
      ],
      "stateMutability": "view",
      "type": "function"
    },
    {
      "inputs": [],
      "name": "renounceOwnership",
      "outputs": [],
      "stateMutability": "nonpayable",
      "type": "function"
    },
    {
      "inputs": [
        {
          "internalType": "uint256",
          "name": "",
          "type": "uint256"
        }
      ],
      "name": "rewardLevels",
      "outputs": [
        {
          "internalType": "uint256",
          "name": "id",
          "type": "uint256"
        },
        {
          "internalType": "string",
          "name": "rankTitle",
          "type": "string"
        },
        {
          "internalType": "uint256",
          "name": "requiredPairs",
          "type": "uint256"
        },
        {
          "internalType": "string",
          "name": "rewardType",
          "type": "string"
        },
        {
          "internalType": "uint256",
          "name": "cashReward",
          "type": "uint256"
        },
        {
          "internalType": "uint256",
          "name": "nxmReward",
          "type": "uint256"
        },
        {
          "internalType": "string",
          "name": "additionalBenefits",
          "type": "string"
        },
        {
          "internalType": "bool",
          "name": "active",
          "type": "bool"
        }
      ],
      "stateMutability": "view",
      "type": "function"
    },
    {
      "inputs": [
        {
          "internalType": "address",
          "name": "_user",
          "type": "address"
        },
        {
          "internalType": "uint256",
          "name": "_level",
          "type": "uint256"
        }
      ],
      "name": "setShowcaseUser",
      "outputs": [],
      "stateMutability": "nonpayable",
      "type": "function"
    },
    {
      "inputs": [],
      "name": "totalRewardsPaid",
      "outputs": [
        {
          "internalType": "uint256",
          "name": "",
          "type": "uint256"
        }
      ],
      "stateMutability": "view",
      "type": "function"
    },
    {
      "inputs": [
        {
          "internalType": "address",
          "name": "newOwner",
          "type": "address"
        }
      ],
      "name": "transferOwnership",
      "outputs": [],
      "stateMutability": "nonpayable",
      "type": "function"
    },
    {
      "inputs": [
        {
          "internalType": "address",
          "name": "_user",
          "type": "address"
        }
      ],
      "name": "updateUserLevel",
      "outputs": [],
      "stateMutability": "nonpayable",
      "type": "function"
    },
    {
      "inputs": [
        {
          "internalType": "address",
          "name": "newImplementation",
          "type": "address"
        },
        {
          "internalType": "bytes",
          "name": "data",
          "type": "bytes"
        }
      ],
      "name": "upgradeToAndCall",
      "outputs": [],
      "stateMutability": "payable",
      "type": "function"
    },
    {
      "inputs": [
        {
          "internalType": "address",
          "name": "",
          "type": "address"
        }
      ],
      "name": "userLevels",
      "outputs": [
        {
          "internalType": "uint256",
          "name": "currentLevel",
          "type": "uint256"
        },
        {
          "internalType": "uint256",
          "name": "pairsAchieved",
          "type": "uint256"
        },
        {
          "internalType": "uint256",
          "name": "totalRewardsClaimed",
          "type": "uint256"
        },
        {
          "internalType": "uint256",
          "name": "lastLevelUpTime",
          "type": "uint256"
        }
      ],
      "stateMutability": "view",
      "type": "function"
    }
  ],
  "bytecode": "0x60a0604052306080523480156200001557600080fd5b5033806200003d57604051631e4fbdf760e01b81526000600482015260240160405180910390fd5b620000488162000053565b5060018055620000a3565b600080546001600160a01b038381166001600160a01b0319831681178455604051919092169283917f8be0079c531659141344cd1fd0a4f28419497f9722a3daafe3b4186f6b6457e09190a35050565b6080516133d6620000cd60003960008181612782015281816127ab01526128e801526133d66000f3fe60806040526004361061011e5760003560e01c80637603d4b6116100a0578063b110544f11610064578063b110544f1461039d578063c273c53e146103bd578063caeadc07146103dd578063d1f03514146103fd578063f2fde38b1461042a57600080fd5b80637603d4b6146102bc578063799fb396146102dc5780638da5cb5b1461030d578063992b60991461032b578063ad3cb1cc1461035f57600080fd5b8063485cc955116100e7578063485cc9551461023b5780634f1ef2861461025b57806352d1902d1461026e578063715018a61461029157806374958e35146102a657600080fd5b80628fb07f146101235780632ccd96231461016857806330413ccf1461019557806340f1d9b8146101f7578063463cce8c14610219575b600080fd5b34801561012f57600080fd5b5061015361013e366004612c35565b60066020526000908152604090205460ff1681565b60405190151581526020015b60405180910390f35b34801561017457600080fd5b50600354610188906001600160a01b031681565b60405161015f9190612c52565b3480156101a157600080fd5b506101d76101b0366004612c35565b60056020526000908152604090208054600182015460028301546003909301549192909184565b60408051948552602085019390935291830152606082015260800161015f565b34801561020357600080fd5b50610217610212366004612c66565b61044a565b005b34801561022557600080fd5b5061022e61053c565b60405161015f9190612d6d565b34801561024757600080fd5b50610217610256366004612dcf565b61078c565b610217610269366004612e1e565b6109bc565b34801561027a57600080fd5b506102836109db565b60405190815260200161015f565b34801561029d57600080fd5b506102176109f8565b3480156102b257600080fd5b5061028360075481565b3480156102c857600080fd5b506102176102d7366004612ee2565b610a0c565b3480156102e857600080fd5b506102fc6102f7366004612c35565b610f30565b60405161015f959493929190612efb565b34801561031957600080fd5b506000546001600160a01b0316610188565b34801561033757600080fd5b5061034b610346366004612ee2565b61115e565b60405161015f989796959493929190612f31565b34801561036b57600080fd5b50610390604051806040016040528060058152602001640352e302e360dc1b81525081565b60405161015f9190612f9d565b3480156103a957600080fd5b506102176103b8366004612c35565b61134d565b3480156103c957600080fd5b506101536103d8366004612c66565b61153b565b3480156103e957600080fd5b50600254610188906001600160a01b031681565b34801561040957600080fd5b5061041d610418366004612ee2565b611680565b60405161015f9190612fb0565b34801561043657600080fd5b50610217610445366004612c35565b611924565b61045261195f565b60008111801561046457506004548111155b6104895760405162461bcd60e51b815260040161048090612fc3565b60405180910390fd5b6001600160a01b0382166000908152600660209081526040808320805460ff191660019081179091556005909252909120828155906004906104cb9084613000565b815481106104db576104db613013565b60009182526020918290206008909102016002015460018301554260038301556040518381526001600160a01b038516917f31cad431b6031390e087748c8ff209c0e28c32810f055070367b799ad8d796d3910160405180910390a2505050565b60606004805480602002602001604051908101604052809291908181526020016000905b828210156107835783829060005260206000209060080201604051806101000160405290816000820154815260200160018201805461059e90613029565b80601f01602080910402602001604051908101604052809291908181526020018280546105ca90613029565b80156106175780601f106105ec57610100808354040283529160200191610617565b820191906000526020600020905b8154815290600101906020018083116105fa57829003601f168201915b505050505081526020016002820154815260200160038201805461063a90613029565b80601f016020809104026020016040519081016040528092919081815260200182805461066690613029565b80156106b35780601f10610688576101008083540402835291602001916106b3565b820191906000526020600020905b81548152906001019060200180831161069657829003601f168201915b5050505050815260200160048201548152602001600582015481526020016006820180546106e090613029565b80601f016020809104026020016040519081016040528092919081815260200182805461070c90613029565b80156107595780601f1061072e57610100808354040283529160200191610759565b820191906000526020600020905b81548152906001019060200180831161073c57829003601f168201915b50505091835250506007919091015460ff1615156020918201529082526001929092019101610560565b50505050905090565b7ff0c57e16840df040f15088dc2f81fe391c3923bec73e23a9662efc9c229c6a008054600160401b810460ff16159067ffffffffffffffff166000811580156107d25750825b905060008267ffffffffffffffff1660011480156107ef5750303b155b9050811580156107fd575080155b1561081b5760405163f92ee8a960e01b815260040160405180910390fd5b845467ffffffffffffffff19166001178555831561084557845460ff60401b1916600160401b1785555b61084d61195f565b6001600160a01b03871661089f5760405162461bcd60e51b8152602060048201526019602482015278496e76616c6964204e584d20746f6b656e206164647265737360381b6044820152606401610480565b6001600160a01b0386166108f55760405162461bcd60e51b815260206004820152601f60248201527f496e76616c696420526566657272616c4d616e616765722061646472657373006044820152606401610480565b600280546001600160a01b03808a166001600160a01b031992831617909255600380549289169290911691909117905561092d61198c565b856001600160a01b0316876001600160a01b03167fcfd4cf9f57f9bd711771339af9ed09be4f666c6ab304414f2415937a13b9ae2960405160405180910390a383156109b357845460ff60401b19168555604051600181527fc7f505b2f371ae2175ee4913f4499e1f2633a7b5936321eed1cdaeb6115181d29060200160405180910390a15b50505050505050565b6109c4612777565b6109cd8261281c565b6109d78282612824565b5050565b60006109e56128dd565b5060008051602061333b83398151915290565b610a0061195f565b610a0a6000612926565b565b610a14612976565b600081118015610a2657506004548111155b610a425760405162461bcd60e51b815260040161048090612fc3565b3360009081526005602052604090208054821115610a975760405162461bcd60e51b815260206004820152601260248201527113195d995b081b9bdd081858da1a595d995960721b6044820152606401610480565b60048101610aa6600184613000565b81548110610ab657610ab6613013565b90600052602060002090602091828204019190069054906101000a900460ff1615610b1c5760405162461bcd60e51b815260206004820152601660248201527514995dd85c9908185b1c9958591e4818db185a5b595960521b6044820152606401610480565b600160048201610b2c8285613000565b81548110610b3c57610b3c613013565b90600052602060002090602091828204019190066101000a81548160ff02191690831515021790555060006004600184610b769190613000565b81548110610b8657610b86613013565b90600052602060002090600802016040518061010001604052908160008201548152602001600182018054610bba90613029565b80601f0160208091040260200160405190810160405280929190818152602001828054610be690613029565b8015610c335780601f10610c0857610100808354040283529160200191610c33565b820191906000526020600020905b815481529060010190602001808311610c1657829003601f168201915b5050505050815260200160028201548152602001600382018054610c5690613029565b80601f0160208091040260200160405190810160405280929190818152602001828054610c8290613029565b8015610ccf5780601f10610ca457610100808354040283529160200191610ccf565b820191906000526020600020905b815481529060010190602001808311610cb257829003601f168201915b505050505081526020016004820154815260200160058201548152602001600682018054610cfc90613029565b80601f0160208091040260200160405190810160405280929190818152602001828054610d2890613029565b8015610d755780601f10610d4a57610100808354040283529160200191610d75565b820191906000526020600020905b815481529060010190602001808311610d5857829003601f168201915b50505091835250506007919091015460ff161515602090910152608081015190915015610dd6578060800151826002016000828254610db49190613063565b9091555050608081015160078054600090610dd0908490613063565b90915550505b60a081015115610ed75760025460a082015160405163a9059cbb60e01b815233600482015260248101919091526001600160a01b039091169063a9059cbb906044016020604051808303816000875af1158015610e37573d6000803e3d6000fd5b505050506040513d601f19601f82011682018060405250810190610e5b919061308b565b610e9d5760405162461bcd60e51b8152602060048201526013602482015272139613481d1c985b9cd9995c8819985a5b1959606a1b6044820152606401610480565b8060a00151826002016000828254610eb59190613063565b909155505060a081015160078054600090610ed1908490613063565b90915550505b608081015160a082015160408051868152602081019390935282015233907f812be816db82c66cd18ca8457005cd84689642d8ac4d38599cc6af444a2dc72a9060600160405180910390a25050610f2d60018055565b50565b6000606060008060008060056000886001600160a01b03166001600160a01b031681526020019081526020016000206040518060a0016040529081600082015481526020016001820154815260200160028201548152602001600382015481526020016004820180548060200260200160405190810160405280929190818152602001828054801561100157602002820191906000526020600020906000905b825461010083900a900460ff161515815260206001928301818104948501949093039092029101808411610fd05790505b505050505081525050905080600001519550806020015193508060400151915060008611801561103357506004548611155b156110f6576004611045600188613000565b8154811061105557611055613013565b9060005260206000209060080201600101805461107190613029565b80601f016020809104026020016040519081016040528092919081815260200182805461109d90613029565b80156110ea5780601f106110bf576101008083540402835291602001916110ea565b820191906000526020600020905b8154815290600101906020018083116110cd57829003601f168201915b50505050509450611119565b604051806040016040528060078152602001664e6f2052616e6b60c81b81525094505b60045486101561114f576004868154811061113657611136613013565b9060005260206000209060080201600201549250611154565b600092505b5091939590929450565b6004818154811061116e57600080fd5b6000918252602090912060089091020180546001820180549193509061119390613029565b80601f01602080910402602001604051908101604052809291908181526020018280546111bf90613029565b801561120c5780601f106111e15761010080835404028352916020019161120c565b820191906000526020600020905b8154815290600101906020018083116111ef57829003601f168201915b50505050509080600201549080600301805461122790613029565b80601f016020809104026020016040519081016040528092919081815260200182805461125390613029565b80156112a05780601f10611275576101008083540402835291602001916112a0565b820191906000526020600020905b81548152906001019060200180831161128357829003601f168201915b5050505050908060040154908060050154908060060180546112c190613029565b80601f01602080910402602001604051908101604052809291908181526020018280546112ed90613029565b801561133a5780601f1061130f5761010080835404028352916020019161133a565b820191906000526020600020905b81548152906001019060200180831161131d57829003601f168201915b5050506007909301549192505060ff1688565b6003546040516345bdda2560e11b81526000916001600160a01b031690638b7bb44a9061137e908590600401612c52565b61010060405180830381865afa15801561139c573d6000803e3d6000fd5b505050506040513d601f19601f820116820180604052508101906113c091906130a6565b506001600160a01b038916600090815260056020526040902060018101829055805491985096509450505050505b600454811015611535576004818154811061140b5761140b613013565b90600052602060002090600802016002015483106115235761142e816001613063565b8254101561152357611441816001613063565b825542600383015560048201546000036114b25760045467ffffffffffffffff81111561147057611470612e08565b604051908082528060200260200182016040528015611499578160200160208202803683370190505b5080516114b0916004850191602090910190612b66565b505b6001600160a01b0384167f8fbcf8d63c7b50e3789adbe8458be49111910ca51f76579de3a25fee062041126114e8836001613063565b600484815481106114fb576114fb613013565b906000526020600020906008020160010160405161151a92919061312b565b60405180910390a25b8061152d816131be565b9150506113ee565b50505050565b600081158061154b575060045482115b156115585750600061167a565b6001600160a01b0383166000908152600560209081526040808320815160a081018352815481526001820154818501526002820154818401526003820154606082015260048201805484518187028101870190955280855291949293608086019390929083018282801561160b57602002820191906000526020600020906000905b825461010083900a900460ff1615158152602060019283018181049485019490930390920291018084116115da5790505b5050505050815250509050828160000151101561162c57600091505061167a565b60008160800151511180156116655750608081015161164c600185613000565b8151811061165c5761165c613013565b60200260200101515b1561167457600091505061167a565b60019150505b92915050565b6116ca604051806101000160405280600081526020016060815260200160008152602001606081526020016000815260200160008152602001606081526020016000151581525090565b6000821180156116dc57506004548211155b6116f85760405162461bcd60e51b815260040161048090612fc3565b6004611705600184613000565b8154811061171557611715613013565b9060005260206000209060080201604051806101000160405290816000820154815260200160018201805461174990613029565b80601f016020809104026020016040519081016040528092919081815260200182805461177590613029565b80156117c25780601f10611797576101008083540402835291602001916117c2565b820191906000526020600020905b8154815290600101906020018083116117a557829003601f168201915b50505050508152602001600282015481526020016003820180546117e590613029565b80601f016020809104026020016040519081016040528092919081815260200182805461181190613029565b801561185e5780601f106118335761010080835404028352916020019161185e565b820191906000526020600020905b81548152906001019060200180831161184157829003601f168201915b50505050508152602001600482015481526020016005820154815260200160068201805461188b90613029565b80601f01602080910402602001604051908101604052809291908181526020018280546118b790613029565b80156119045780601f106118d957610100808354040283529160200191611904565b820191906000526020600020905b8154815290600101906020018083116118e757829003601f168201915b50505091835250506007919091015460ff16151560209091015292915050565b61192c61195f565b6001600160a01b038116611956576000604051631e4fbdf760e01b81526004016104809190612c52565b610f2d81612926565b6000546001600160a01b03163314610a0a573360405163118cdaa760e01b81526004016104809190612c52565b6040805161010081018252600180825282518084018452600c8082526b53746172746572204e6f646560a01b602083810191909152808501928352601985870152855180870187529182526b21b0b9b41015902a37b5b2b760a11b82820152606085019190915268056bc75e2d6310000060808501526802b5e3af16b188000060a085015284518086019095526015855274426173696320706c6174666f726d2061636365737360581b9085015260c083019390935260e0820181905260048054918201815560005281516008909102600080516020613381833981519152810191825592519192909160008051602061331b83398151915290910190611a939082613225565b506040820151600282015560608201516003820190611ab29082613225565b506080820151600482015560a0820151600582015560c08201516006820190611adb9082613225565b5060e091820151600791909101805460ff191691151591909117905560408051610100810182526002815281518083018352600b81526a47726f777468204e6f646560a81b60208083019190915280830191825260328385015283518085018552600c81526b21b0b9b41015902a37b5b2b760a11b818301526060840152680d8d726b7177a800006080840152680ad78ebc5ac620000060a08401528351808501909452601084526f141c9a5bdc9a5d1e481cdd5c1c1bdc9d60821b9084015260c08201929092526001928101839052600480549384018155600052805160008051602061338183398151915260089094029384019081559151909260008051602061331b8339815191520190611bf29082613225565b506040820151600282015560608201516003820190611c119082613225565b506080820151600482015560a0820151600582015560c08201516006820190611c3a9082613225565b5060e091820151600791909101805460ff191691151591909117905560408051610100810182526003815281518083018352600a815269506f776572204e6f646560b01b60208083019190915280830191825260648385015283518085018552600c81526b21b0b9b41015902a37b5b2b760a11b818301526060840152681b1ae4d6e2ef5000006080840152681043561a882930000060a084015283518085019094526011845270456e68616e6365642062656e656669747360781b9084015260c08201929092526001928101839052600480549384018155600052805160008051602061338183398151915260089094029384019081559151909260008051602061331b8339815191520190611d519082613225565b506040820151600282015560608201516003820190611d709082613225565b506080820151600482015560a0820151600582015560c08201516006820190611d999082613225565b5060e091820151600791909101805460ff19169115159190911790556040805161010081018252600480825282518084018452600a80825269456c697465204e6f646560b01b60208084019190915280850192835260fa8587015285518087018752600c81526b21b0b9b41015902a37b5b2b760a11b818301526060860152683635c9adc5dea000006080860152682086ac35105260000060a08601528551808701909652908552695649502061636365737360b01b9085015260c0830193909352600193820184905280549384018155600052805160008051602061338183398151915260089094029384019081559151909260008051602061331b8339815191520190611ea89082613225565b506040820151600282015560608201516003820190611ec79082613225565b506080820151600482015560a0820151600582015560c08201516006820190611ef09082613225565b5060e091820151600791909101805460ff19169115159190911790556040805161010081018252600581528151808301835260088082526750726f204e6f646560c01b6020808401919091528084019283526101f4848601528451808601865260128152714c6966657374796c65202b2043727970746f60701b818301526060850152685150ae84a8cdf000006080850152600060a085018190528551808701909652601986527826b0b1a137b7b59037b9102a3930bb32b6102b37bab1b432b960391b9186019190915260c0840194909452600194830185905260048054958601815590935281516000805160206133818339815191529490930293840192835551909260008051602061331b83398151915201906120109082613225565b50604082015160028201556060820151600382019061202f9082613225565b506080820151600482015560a0820151600582015560c082015160068201906120589082613225565b5060e091820151600791909101805460ff191691151591909117905560408051610100810182526006815281518083018352600a8152695072696d65204e6f646560b01b6020808301919091528083019182526103e88385015283518085018552601b81527f43617368202b20496e7465726e6174696f6e616c2053756d6d6974000000000081830152606084015268878678326eac9000006080840152600060a084018190528451808601909552601a85527f427573696e6573732053756d6d697420496e7669746174696f6e0000000000009185019190915260c08301939093526001938201849052600480549485018155909252805160008051602061338183398151915260089094029384019081559151909260008051602061331b833981519152019061218a9082613225565b5060408201516002820155606082015160038201906121a99082613225565b506080820151600482015560a0820151600582015560c082015160068201906121d29082613225565b5060e0918201516007918201805491151560ff19909216919091179055604080516101008101825291825280518082018252600b81526a5765616c7468204e6f646560a81b6020828101919091528084019182526109c4848401528251808401845260128152712634b332b9ba3cb632902932bbb0b932101960711b81830152606085015269032d26d12e980b6000006080850152600060a085018190528351808501909452601f84527f476173204f52205072656d69756d2043617220446f776e205061796d656e74009184019190915260c08401929092526001938301849052600480549485018155909152815160089093026000805160206133818339815191528101938455905191929160008051602061331b833981519152909101906122fd9082613225565b50604082015160028201556060820151600382019061231c9082613225565b506080820151600482015560a0820151600582015560c082015160068201906123459082613225565b5060e0918201516007909101805491151560ff199092169190911790556040805161010081018252600880825282518084018452600a815269546974616e204e6f646560b01b6020828101919091528084019182526113888486015284518086018652601081526f4c6f6e672d5465726d20496e636f6d6560801b818301526060850152690a968163f0a57b4000006080850152600060a0850181905285518087019096526018865277131a59995d1a5b59480c0b8c8c09481493d248109bdbdcdd60421b9186019190915260c08401949094526001948301859052600480549586018155909352815193026000805160206133818339815191528101938455915190929160008051602061331b83398151915201906124659082613225565b5060408201516002820155606082015160038201906124849082613225565b506080820151600482015560a0820151600582015560c082015160068201906124ad9082613225565b5060e08201518160070160006101000a81548160ff02191690831515021790555050506004604051806101000160405280600981526020016040518060400160405280600b81526020016a4c6567656e64204e6f646560a81b8152508152602001612710815260200160405180604001604052806014815260200173115c5d5a5d1e4b54dd1e5b194810995b99599a5d60621b8152508152602001600081526020016000815260200160405180606001604052806026815260200161335b6026913981526001602091820181905283548082018555600094855293829020835160089095020193845590820151919291908201906125ab9082613225565b5060408201516002820155606082015160038201906125ca9082613225565b506080820151600482015560a0820151600582015560c082015160068201906125f39082613225565b5060e091820151600791909101805460ff19169115159190911790556040805161010081018252600a815281518083018352600c81526b47656e65736973204e6f646560a01b6020808301919091528083019182526161a883850152835180850185526014815273119bdd5b99195c8b50db185cdcc814995dd85c9960621b81830152606084015269152d02c7e14af68000006080840152600060a084018190528451808601909552600f85526e41647669736f72792053746174757360881b9185019190915260c08301939093526001938201849052600480549485018155909252805160008051602061338183398151915260089094029384019081559151909260008051602061331b83398151915201906127119082613225565b5060408201516002820155606082015160038201906127309082613225565b506080820151600482015560a0820151600582015560c082015160068201906127599082613225565b5060e091909101516007909101805460ff1916911515919091179055565b306001600160a01b037f00000000000000000000000000000000000000000000000000000000000000001614806127fe57507f00000000000000000000000000000000000000000000000000000000000000006001600160a01b03166127f260008051602061333b833981519152546001600160a01b031690565b6001600160a01b031614155b15610a0a5760405163703e46dd60e11b815260040160405180910390fd5b610f2d61195f565b816001600160a01b03166352d1902d6040518163ffffffff1660e01b8152600401602060405180830381865afa92505050801561287e575060408051601f3d908101601f1916820190925261287b918101906132e5565b60015b61289d5781604051634c9c8ce360e01b81526004016104809190612c52565b60008051602061333b83398151915281146128ce57604051632a87526960e21b815260048101829052602401610480565b6128d883836129a0565b505050565b306001600160a01b037f00000000000000000000000000000000000000000000000000000000000000001614610a0a5760405163703e46dd60e11b815260040160405180910390fd5b600080546001600160a01b038381166001600160a01b0319831681178455604051919092169283917f8be0079c531659141344cd1fd0a4f28419497f9722a3daafe3b4186f6b6457e09190a35050565b60026001540361299957604051633ee5aeb560e01b815260040160405180910390fd5b6002600155565b6129a9826129f6565b6040516001600160a01b038316907fbc7cd75a20ee27fd9adebab32041f755214dbc6bffa90cc0225b39da2e5c2d3b90600090a28051156129ee576128d88282612a52565b6109d7612ac8565b806001600160a01b03163b600003612a235780604051634c9c8ce360e01b81526004016104809190612c52565b60008051602061333b83398151915280546001600160a01b0319166001600160a01b0392909216919091179055565b6060600080846001600160a01b031684604051612a6f91906132fe565b600060405180830381855af49150503d8060008114612aaa576040519150601f19603f3d011682016040523d82523d6000602084013e612aaf565b606091505b5091509150612abf858383612ae7565b95945050505050565b3415610a0a5760405163b398979f60e01b815260040160405180910390fd5b606082612afc57612af782612b3d565b612b36565b8151158015612b1357506001600160a01b0384163b155b15612b335783604051639996b31560e01b81526004016104809190612c52565b50805b9392505050565b805115612b4d5780518082602001fd5b604051630a12f52160e11b815260040160405180910390fd5b82805482825590600052602060002090601f01602090048101928215612bfb5791602002820160005b83821115612bcc57835183826101000a81548160ff0219169083151502179055509260200192600101602081600001049283019260010302612b8f565b8015612bf95782816101000a81549060ff0219169055600101602081600001049283019260010302612bcc565b505b50612c07929150612c0b565b5090565b5b80821115612c075760008155600101612c0c565b6001600160a01b0381168114610f2d57600080fd5b600060208284031215612c4757600080fd5b8135612b3681612c20565b6001600160a01b0391909116815260200190565b60008060408385031215612c7957600080fd5b8235612c8481612c20565b946020939093013593505050565b60005b83811015612cad578181015183820152602001612c95565b50506000910152565b60008151808452612cce816020860160208601612c92565b601f01601f19169290920160200192915050565b6000610100825184526020830151816020860152612d0282860182612cb6565b9150506040830151604085015260608301518482036060860152612d268282612cb6565b9150506080830151608085015260a083015160a085015260c083015184820360c0860152612d548282612cb6565b91505060e0830151151560e08501528091505092915050565b6000602080830181845280855180835260408601915060408160051b870101925083870160005b82811015612dc257603f19888603018452612db0858351612ce2565b94509285019290850190600101612d94565b5092979650505050505050565b60008060408385031215612de257600080fd5b8235612ded81612c20565b91506020830135612dfd81612c20565b809150509250929050565b634e487b7160e01b600052604160045260246000fd5b60008060408385031215612e3157600080fd5b8235612e3c81612c20565b9150602083013567ffffffffffffffff80821115612e5957600080fd5b818501915085601f830112612e6d57600080fd5b813581811115612e7f57612e7f612e08565b604051601f8201601f19908116603f01168101908382118183101715612ea757612ea7612e08565b81604052828152886020848701011115612ec057600080fd5b8260208601602083013760006020848301015280955050505050509250929050565b600060208284031215612ef457600080fd5b5035919050565b85815260a060208201526000612f1460a0830187612cb6565b604083019590955250606081019290925260809091015292915050565b60006101008a8352806020840152612f4b8184018b612cb6565b90508860408401528281036060840152612f658189612cb6565b90508660808401528560a084015282810360c0840152612f858186612cb6565b91505082151560e08301529998505050505050505050565b602081526000612b366020830184612cb6565b602081526000612b366020830184612ce2565b6020808252600d908201526c125b9d985b1a59081b195d995b609a1b604082015260600190565b634e487b7160e01b600052601160045260246000fd5b8181038181111561167a5761167a612fea565b634e487b7160e01b600052603260045260246000fd5b600181811c9082168061303d57607f821691505b60208210810361305d57634e487b7160e01b600052602260045260246000fd5b50919050565b8082018082111561167a5761167a612fea565b8051801515811461308657600080fd5b919050565b60006020828403121561309d57600080fd5b612b3682613076565b600080600080600080600080610100898b0312156130c357600080fd5b88516130ce81612c20565b60208a01519098506130df81612c20565b60408a01519097506130f081612c20565b80965050606089015194506080890151935060a0890151925060c0890151915061311c60e08a01613076565b90509295985092959890939650565b828152600060206040818401526000845461314581613029565b80604087015260606001808416600081146131675760018114613181576131af565b60ff1985168984015283151560051b8901830195506131af565b896000528660002060005b858110156131a75781548b820186015290830190880161318c565b8a0184019650505b50939998505050505050505050565b6000600182016131d0576131d0612fea565b5060010190565b601f8211156128d857600081815260208120601f850160051c810160208610156131fe5750805b601f850160051c820191505b8181101561321d5782815560010161320a565b505050505050565b815167ffffffffffffffff81111561323f5761323f612e08565b6132538161324d8454613029565b846131d7565b602080601f83116001811461328857600084156132705750858301515b600019600386901b1c1916600185901b17855561321d565b600085815260208120601f198616915b828110156132b757888601518255948401946001909101908401613298565b50858210156132d55787850151600019600388901b60f8161c191681555b5050505050600190811b01905550565b6000602082840312156132f757600080fd5b5051919050565b60008251613310818460208701612c92565b919091019291505056fe8a35acfbc15ff81a39ae7d344fd709f28e8600b4aa8c65c6b64bfe7fe36bd19c360894a13ba1a3210667c828492db98dca3e2076cc3735a920a3ca505d382bbc302e3525205368617265206f66204d6f6e74686c7920506c6174666f726d20526576656e75658a35acfbc15ff81a39ae7d344fd709f28e8600b4aa8c65c6b64bfe7fe36bd19ba2646970667358221220a203e77fda2269ef4c9f5c8242cf5b0cf468014c99857a586c662d4cb2cad94364736f6c63430008140033",
  "linkReferences": {},
  "deployedLinkReferences": {}
}