{
  "_format": "hh-sol-artifact-1",
  "contractName": "NexiumToken",
  "sourceName": "contracts/NexiumToken.sol",
  "abi": [
    {
      "inputs": [],
      "stateMutability": "nonpayable",
      "type": "constructor"
    },
    {
      "inputs": [
        {
          "internalType": "address",
          "name": "target",
          "type": "address"
        }
      ],
      "name": "AddressEmptyCode",
      "type": "error"
    },
    {
      "inputs": [
        {
          "internalType": "address",
          "name": "implementation",
          "type": "address"
        }
      ],
      "name": "ERC1967InvalidImplementation",
      "type": "error"
    },
    {
      "inputs": [],
      "name": "ERC1967NonPayable",
      "type": "error"
    },
    {
      "inputs": [
        {
          "internalType": "address",
          "name": "spender",
          "type": "address"
        },
        {
          "internalType": "uint256",
          "name": "allowance",
          "type": "uint256"
        },
        {
          "internalType": "uint256",
          "name": "needed",
          "type": "uint256"
        }
      ],
      "name": "ERC20InsufficientAllowance",
      "type": "error"
    },
    {
      "inputs": [
        {
          "internalType": "address",
          "name": "sender",
          "type": "address"
        },
        {
          "internalType": "uint256",
          "name": "balance",
          "type": "uint256"
        },
        {
          "internalType": "uint256",
          "name": "needed",
          "type": "uint256"
        }
      ],
      "name": "ERC20InsufficientBalance",
      "type": "error"
    },
    {
      "inputs": [
        {
          "internalType": "address",
          "name": "approver",
          "type": "address"
        }
      ],
      "name": "ERC20InvalidApprover",
      "type": "error"
    },
    {
      "inputs": [
        {
          "internalType": "address",
          "name": "receiver",
          "type": "address"
        }
      ],
      "name": "ERC20InvalidReceiver",
      "type": "error"
    },
    {
      "inputs": [
        {
          "internalType": "address",
          "name": "sender",
          "type": "address"
        }
      ],
      "name": "ERC20InvalidSender",
      "type": "error"
    },
    {
      "inputs": [
        {
          "internalType": "address",
          "name": "spender",
          "type": "address"
        }
      ],
      "name": "ERC20InvalidSpender",
      "type": "error"
    },
    {
      "inputs": [],
      "name": "FailedInnerCall",
      "type": "error"
    },
    {
      "inputs": [],
      "name": "InvalidInitialization",
      "type": "error"
    },
    {
      "inputs": [],
      "name": "NotInitializing",
      "type": "error"
    },
    {
      "inputs": [
        {
          "internalType": "address",
          "name": "owner",
          "type": "address"
        }
      ],
      "name": "OwnableInvalidOwner",
      "type": "error"
    },
    {
      "inputs": [
        {
          "internalType": "address",
          "name": "account",
          "type": "address"
        }
      ],
      "name": "OwnableUnauthorizedAccount",
      "type": "error"
    },
    {
      "inputs": [],
      "name": "UUPSUnauthorizedCallContext",
      "type": "error"
    },
    {
      "inputs": [
        {
          "internalType": "bytes32",
          "name": "slot",
          "type": "bytes32"
        }
      ],
      "name": "UUPSUnsupportedProxiableUUID",
      "type": "error"
    },
    {
      "anonymous": false,
      "inputs": [
        {
          "indexed": true,
          "internalType": "address",
          "name": "owner",
          "type": "address"
        },
        {
          "indexed": true,
          "internalType": "address",
          "name": "spender",
          "type": "address"
        },
        {
          "indexed": false,
          "internalType": "uint256",
          "name": "value",
          "type": "uint256"
        }
      ],
      "name": "Approval",
      "type": "event"
    },
    {
      "anonymous": false,
      "inputs": [
        {
          "indexed": false,
          "internalType": "uint64",
          "name": "version",
          "type": "uint64"
        }
      ],
      "name": "Initialized",
      "type": "event"
    },
    {
      "anonymous": false,
      "inputs": [
        {
          "indexed": true,
          "internalType": "address",
          "name": "previousOwner",
          "type": "address"
        },
        {
          "indexed": true,
          "internalType": "address",
          "name": "newOwner",
          "type": "address"
        }
      ],
      "name": "OwnershipTransferred",
      "type": "event"
    },
    {
      "anonymous": false,
      "inputs": [
        {
          "indexed": true,
          "internalType": "address",
          "name": "to",
          "type": "address"
        },
        {
          "indexed": false,
          "internalType": "uint256",
          "name": "amount",
          "type": "uint256"
        },
        {
          "indexed": false,
          "internalType": "string",
          "name": "category",
          "type": "string"
        }
      ],
      "name": "TokenAllocated",
      "type": "event"
    },
    {
      "anonymous": false,
      "inputs": [
        {
          "indexed": true,
          "internalType": "address",
          "name": "from",
          "type": "address"
        },
        {
          "indexed": true,
          "internalType": "address",
          "name": "to",
          "type": "address"
        },
        {
          "indexed": false,
          "internalType": "uint256",
          "name": "value",
          "type": "uint256"
        }
      ],
      "name": "Transfer",
      "type": "event"
    },
    {
      "anonymous": false,
      "inputs": [
        {
          "indexed": true,
          "internalType": "address",
          "name": "implementation",
          "type": "address"
        }
      ],
      "name": "Upgraded",
      "type": "event"
    },
    {
      "inputs": [],
      "name": "INITIAL_SUPPLY",
      "outputs": [
        {
          "internalType": "uint256",
          "name": "",
          "type": "uint256"
        }
      ],
      "stateMutability": "view",
      "type": "function"
    },
    {
      "inputs": [],
      "name": "UPGRADE_INTERFACE_VERSION",
      "outputs": [
        {
          "internalType": "string",
          "name": "",
          "type": "string"
        }
      ],
      "stateMutability": "view",
      "type": "function"
    },
    {
      "inputs": [
        {
          "internalType": "bytes32",
          "name": "",
          "type": "bytes32"
        }
      ],
      "name": "allocations",
      "outputs": [
        {
          "internalType": "uint256",
          "name": "",
          "type": "uint256"
        }
      ],
      "stateMutability": "view",
      "type": "function"
    },
    {
      "inputs": [
        {
          "internalType": "address",
          "name": "owner",
          "type": "address"
        },
        {
          "internalType": "address",
          "name": "spender",
          "type": "address"
        }
      ],
      "name": "allowance",
      "outputs": [
        {
          "internalType": "uint256",
          "name": "",
          "type": "uint256"
        }
      ],
      "stateMutability": "view",
      "type": "function"
    },
    {
      "inputs": [
        {
          "internalType": "address",
          "name": "spender",
          "type": "address"
        },
        {
          "internalType": "uint256",
          "name": "value",
          "type": "uint256"
        }
      ],
      "name": "approve",
      "outputs": [
        {
          "internalType": "bool",
          "name": "",
          "type": "bool"
        }
      ],
      "stateMutability": "nonpayable",
      "type": "function"
    },
    {
      "inputs": [
        {
          "internalType": "address",
          "name": "account",
          "type": "address"
        }
      ],
      "name": "balanceOf",
      "outputs": [
        {
          "internalType": "uint256",
          "name": "",
          "type": "uint256"
        }
      ],
      "stateMutability": "view",
      "type": "function"
    },
    {
      "inputs": [
        {
          "internalType": "uint256",
          "name": "value",
          "type": "uint256"
        }
      ],
      "name": "burn",
      "outputs": [],
      "stateMutability": "nonpayable",
      "type": "function"
    },
    {
      "inputs": [
        {
          "internalType": "address",
          "name": "account",
          "type": "address"
        },
        {
          "internalType": "uint256",
          "name": "value",
          "type": "uint256"
        }
      ],
      "name": "burnFrom",
      "outputs": [],
      "stateMutability": "nonpayable",
      "type": "function"
    },
    {
      "inputs": [],
      "name": "decimals",
      "outputs": [
        {
          "internalType": "uint8",
          "name": "",
          "type": "uint8"
        }
      ],
      "stateMutability": "view",
      "type": "function"
    },
    {
      "inputs": [],
      "name": "initialize",
      "outputs": [],
      "stateMutability": "nonpayable",
      "type": "function"
    },
    {
      "inputs": [
        {
          "internalType": "address",
          "name": "",
          "type": "address"
        }
      ],
      "name": "isMinted",
      "outputs": [
        {
          "internalType": "bool",
          "name": "",
          "type": "bool"
        }
      ],
      "stateMutability": "view",
      "type": "function"
    },
    {
      "inputs": [
        {
          "internalType": "address",
          "name": "_to",
          "type": "address"
        },
        {
          "internalType": "uint256",
          "name": "_amount",
          "type": "uint256"
        }
      ],
      "name": "mint",
      "outputs": [],
      "stateMutability": "nonpayable",
      "type": "function"
    },
    {
      "inputs": [
        {
          "internalType": "address",
          "name": "_to",
          "type": "address"
        },
        {
          "internalType": "string",
          "name": "_category",
          "type": "string"
        }
      ],
      "name": "mintAllocation",
      "outputs": [],
      "stateMutability": "nonpayable",
      "type": "function"
    },
    {
      "inputs": [],
      "name": "name",
      "outputs": [
        {
          "internalType": "string",
          "name": "",
          "type": "string"
        }
      ],
      "stateMutability": "view",
      "type": "function"
    },
    {
      "inputs": [],
      "name": "owner",
      "outputs": [
        {
          "internalType": "address",
          "name": "",
          "type": "address"
        }
      ],
      "stateMutability": "view",
      "type": "function"
    },
    {
      "inputs": [],
      "name": "proxiableUUID",
      "outputs": [
        {
          "internalType": "bytes32",
          "name": "",
          "type": "bytes32"
        }
      ],
      "stateMutability": "view",
      "type": "function"
    },
    {
      "inputs": [],
      "name": "renounceOwnership",
      "outputs": [],
      "stateMutability": "nonpayable",
      "type": "function"
    },
    {
      "inputs": [],
      "name": "symbol",
      "outputs": [
        {
          "internalType": "string",
          "name": "",
          "type": "string"
        }
      ],
      "stateMutability": "view",
      "type": "function"
    },
    {
      "inputs": [],
      "name": "totalSupply",
      "outputs": [
        {
          "internalType": "uint256",
          "name": "",
          "type": "uint256"
        }
      ],
      "stateMutability": "view",
      "type": "function"
    },
    {
      "inputs": [
        {
          "internalType": "address",
          "name": "to",
          "type": "address"
        },
        {
          "internalType": "uint256",
          "name": "value",
          "type": "uint256"
        }
      ],
      "name": "transfer",
      "outputs": [
        {
          "internalType": "bool",
          "name": "",
          "type": "bool"
        }
      ],
      "stateMutability": "nonpayable",
      "type": "function"
    },
    {
      "inputs": [
        {
          "internalType": "address",
          "name": "from",
          "type": "address"
        },
        {
          "internalType": "address",
          "name": "to",
          "type": "address"
        },
        {
          "internalType": "uint256",
          "name": "value",
          "type": "uint256"
        }
      ],
      "name": "transferFrom",
      "outputs": [
        {
          "internalType": "bool",
          "name": "",
          "type": "bool"
        }
      ],
      "stateMutability": "nonpayable",
      "type": "function"
    },
    {
      "inputs": [
        {
          "internalType": "address",
          "name": "newOwner",
          "type": "address"
        }
      ],
      "name": "transferOwnership",
      "outputs": [],
      "stateMutability": "nonpayable",
      "type": "function"
    },
    {
      "inputs": [
        {
          "internalType": "address",
          "name": "newImplementation",
          "type": "address"
        },
        {
          "internalType": "bytes",
          "name": "data",
          "type": "bytes"
        }
      ],
      "name": "upgradeToAndCall",
      "outputs": [],
      "stateMutability": "payable",
      "type": "function"
    },
    {
      "inputs": [],
      "name": "version",
      "outputs": [
        {
          "internalType": "string",
          "name": "",
          "type": "string"
        }
      ],
      "stateMutability": "pure",
      "type": "function"
    }
  ],
  "bytecode": "0x60a0604052306080523480156200001557600080fd5b5033604051806040016040528060068152602001654e657869756d60d01b815250604051806040016040528060038152602001624e584d60e81b8152508160039081620000639190620001ad565b506004620000728282620001ad565b5050506001600160a01b038116620000a457604051631e4fbdf760e01b81526000600482015260240160405180910390fd5b620000af81620000b6565b5062000279565b600580546001600160a01b038381166001600160a01b0319831681179093556040519116919082907f8be0079c531659141344cd1fd0a4f28419497f9722a3daafe3b4186f6b6457e090600090a35050565b634e487b7160e01b600052604160045260246000fd5b600181811c908216806200013357607f821691505b6020821081036200015457634e487b7160e01b600052602260045260246000fd5b50919050565b601f821115620001a857600081815260208120601f850160051c81016020861015620001835750805b601f850160051c820191505b81811015620001a4578281556001016200018f565b5050505b505050565b81516001600160401b03811115620001c957620001c962000108565b620001e181620001da84546200011e565b846200015a565b602080601f831160018114620002195760008415620002005750858301515b600019600386901b1c1916600185901b178555620001a4565b600085815260208120601f198616915b828110156200024a5788860151825594840194600190910190840162000229565b5085821015620002695787850151600019600388901b60f8161c191681555b5050505050600190811b01905550565b608051611671620002a360003960008181610d1a01528181610d430152610e7b01526116716000f3fe60806040526004361061014b5760003560e01c8063715018a6116100b6578063ad3cb1cc1161006f578063ad3cb1cc14610398578063cd4a5488146103c9578063d7a59703146103f6578063dd62ed3e14610416578063f2fde38b14610436578063f9f2a7ce1461045657600080fd5b8063715018a6146102f357806379cc6790146103085780638129fc1c146103285780638da5cb5b1461033d57806395d89b4114610363578063a9059cbb1461037857600080fd5b806340c10f191161010857806340c10f191461022557806342966c68146102475780634f1ef2861461026757806352d1902d1461027a57806354fd4d501461028f57806370a08231146102bd57600080fd5b806306fdde0314610150578063095ea7b31461017b57806318160ddd146101ab57806323b872dd146101ca5780632ff2e9dc146101ea578063313ce56714610209575b600080fd5b34801561015c57600080fd5b50610165610486565b604051610172919061130a565b60405180910390f35b34801561018757600080fd5b5061019b610196366004611339565b610518565b6040519015158152602001610172565b3480156101b757600080fd5b506002545b604051908152602001610172565b3480156101d657600080fd5b5061019b6101e5366004611363565b610532565b3480156101f657600080fd5b506101bc6a52b7d2dcc80cd2e400000081565b34801561021557600080fd5b5060405160128152602001610172565b34801561023157600080fd5b50610245610240366004611339565b610558565b005b34801561025357600080fd5b5061024561026236600461139f565b61056e565b610245610275366004611444565b61057b565b34801561028657600080fd5b506101bc610596565b34801561029b57600080fd5b506040805180820190915260058152640312e302e360dc1b6020820152610165565b3480156102c957600080fd5b506101bc6102d83660046114a6565b6001600160a01b031660009081526020819052604090205490565b3480156102ff57600080fd5b506102456105b3565b34801561031457600080fd5b50610245610323366004611339565b6105c7565b34801561033457600080fd5b506102456105dc565b34801561034957600080fd5b506005546001600160a01b031660405161017291906114c1565b34801561036f57600080fd5b50610165610997565b34801561038457600080fd5b5061019b610393366004611339565b6109a6565b3480156103a457600080fd5b50610165604051806040016040528060058152602001640352e302e360dc1b81525081565b3480156103d557600080fd5b506101bc6103e436600461139f565b60066020526000908152604090205481565b34801561040257600080fd5b50610245610411366004611444565b6109b4565b34801561042257600080fd5b506101bc6104313660046114d5565b610b4c565b34801561044257600080fd5b506102456104513660046114a6565b610b77565b34801561046257600080fd5b5061019b6104713660046114a6565b60076020526000908152604090205460ff1681565b60606003805461049590611508565b80601f01602080910402602001604051908101604052809291908181526020018280546104c190611508565b801561050e5780601f106104e35761010080835404028352916020019161050e565b820191906000526020600020905b8154815290600101906020018083116104f157829003601f168201915b5050505050905090565b600033610526818585610bb2565b60019150505b92915050565b600033610540858285610bc4565b61054b858585610c17565b60019150505b9392505050565b610560610c76565b61056a8282610ca3565b5050565b6105783382610cd9565b50565b610583610d0f565b61058c82610db4565b61056a8282610dbc565b60006105a0610e70565b5060008051602061161c83398151915290565b6105bb610c76565b6105c56000610eb9565b565b6105d2823383610bc4565b61056a8282610cd9565b7ff0c57e16840df040f15088dc2f81fe391c3923bec73e23a9662efc9c229c6a008054600160401b810460ff16159067ffffffffffffffff166000811580156106225750825b905060008267ffffffffffffffff16600114801561063f5750303b155b90508115801561064d575080155b1561066b5760405163f92ee8a960e01b815260040160405180910390fd5b845467ffffffffffffffff19166001178555831561069557845460ff60401b1916600160401b1785555b61069d610c76565b60646106b56a52b7d2dcc80cd2e40000006023611558565b6106bf919061156f565b600660006040516020016106ea907045434f53595354454d5f5245574152445360781b815260110190565b60408051601f198184030181529181528151602092830120835290820192909252016000205560646107286a52b7d2dcc80cd2e40000006014611558565b610732919061156f565b6006600060405160200161075c906f13125455525112551657d3505492d15560821b815260100190565b60408051601f1981840301815291815281516020928301208352908201929092520160002055606461079a6a52b7d2dcc80cd2e4000000600f611558565b6107a4919061156f565b600660006040516020016107ce906f0869e9a9aaa9c92a8b2be8ea49eaea8960831b815260100190565b60408051601f1981840301815291815281516020928301208352908201929092520160002055606461080c6a52b7d2dcc80cd2e4000000600f611558565b610816919061156f565b6006600060405160200161083e906d4445565f4f5045524154494f4e5360901b8152600e0190565b60408051601f1981840301815291815281516020928301208352908201929092520160002055606461087c6a52b7d2dcc80cd2e4000000600a611558565b610886919061156f565b600660006040516020016108ad906c464f554e444552535f5445414d60981b8152600d0190565b60408051601f198184030181529181528151602092830120835290820192909252016000205560646108eb6a52b7d2dcc80cd2e40000006005611558565b6108f5919061156f565b600660006040516020016109229072524553455256455f434f4e54494e47454e435960681b815260130190565b60405160208183030381529060405280519060200120815260200190815260200160002081905550831561099057845460ff60401b19168555604051600181527fc7f505b2f371ae2175ee4913f4499e1f2633a7b5936321eed1cdaeb6115181d29060200160405180910390a15b5050505050565b60606004805461049590611508565b600033610526818585610c17565b6109bc610c76565b6000816040516020016109cf9190611591565b60408051601f19818403018152918152815160209283012060008181526006909352912054909150610a535760405162461bcd60e51b815260206004820152602260248201527f496e76616c69642063617465676f7279206f7220616c7265616479206d696e74604482015261195960f21b60648201526084015b60405180910390fd5b6001600160a01b03831660009081526007602052604090205460ff1615610ac85760405162461bcd60e51b815260206004820152602360248201527f4164647265737320616c726561647920726563656976656420616c6c6f63617460448201526234b7b760e91b6064820152608401610a4a565b6000818152600660209081526040808320546001600160a01b03871684526007909252909120805460ff19166001179055610b038482610ca3565b836001600160a01b03167fe365b95dd646d07554154917566b5d4fc34c23f906472248461a6026c85dbbc08285604051610b3e9291906115ad565b60405180910390a250505050565b6001600160a01b03918216600090815260016020908152604080832093909416825291909152205490565b610b7f610c76565b6001600160a01b038116610ba9576000604051631e4fbdf760e01b8152600401610a4a91906114c1565b61057881610eb9565b610bbf8383836001610f0b565b505050565b6000610bd08484610b4c565b90506000198114610c115781811015610c0257828183604051637dc7a0d960e11b8152600401610a4a939291906115ce565b610c1184848484036000610f0b565b50505050565b6001600160a01b038316610c41576000604051634b637e8f60e11b8152600401610a4a91906114c1565b6001600160a01b038216610c6b57600060405163ec442f0560e01b8152600401610a4a91906114c1565b610bbf838383610fe0565b6005546001600160a01b031633146105c5573360405163118cdaa760e01b8152600401610a4a91906114c1565b6001600160a01b038216610ccd57600060405163ec442f0560e01b8152600401610a4a91906114c1565b61056a60008383610fe0565b6001600160a01b038216610d03576000604051634b637e8f60e11b8152600401610a4a91906114c1565b61056a82600083610fe0565b306001600160a01b037f0000000000000000000000000000000000000000000000000000000000000000161480610d9657507f00000000000000000000000000000000000000000000000000000000000000006001600160a01b0316610d8a60008051602061161c833981519152546001600160a01b031690565b6001600160a01b031614155b156105c55760405163703e46dd60e11b815260040160405180910390fd5b610578610c76565b816001600160a01b03166352d1902d6040518163ffffffff1660e01b8152600401602060405180830381865afa925050508015610e16575060408051601f3d908101601f19168201909252610e13918101906115ef565b60015b610e355781604051634c9c8ce360e01b8152600401610a4a91906114c1565b60008051602061161c8339815191528114610e6657604051632a87526960e21b815260048101829052602401610a4a565b610bbf83836110f7565b306001600160a01b037f000000000000000000000000000000000000000000000000000000000000000016146105c55760405163703e46dd60e11b815260040160405180910390fd5b600580546001600160a01b038381166001600160a01b0319831681179093556040519116919082907f8be0079c531659141344cd1fd0a4f28419497f9722a3daafe3b4186f6b6457e090600090a35050565b6001600160a01b038416610f3557600060405163e602df0560e01b8152600401610a4a91906114c1565b6001600160a01b038316610f5f576000604051634a1406b160e11b8152600401610a4a91906114c1565b6001600160a01b0380851660009081526001602090815260408083209387168352929052208290558015610c1157826001600160a01b0316846001600160a01b03167f8c5be1e5ebec7d5bd14f71427d1e84f3dd0314c0f7b2291e5b200ac8c7c3b92584604051610fd291815260200190565b60405180910390a350505050565b6001600160a01b03831661100b5780600260008282546110009190611608565b9091555061106a9050565b6001600160a01b0383166000908152602081905260409020548181101561104b5783818360405163391434e360e21b8152600401610a4a939291906115ce565b6001600160a01b03841660009081526020819052604090209082900390555b6001600160a01b038216611086576002805482900390556110a5565b6001600160a01b03821660009081526020819052604090208054820190555b816001600160a01b0316836001600160a01b03167fddf252ad1be2c89b69c2b068fc378daa952ba7f163c4a11628f55a4df523b3ef836040516110ea91815260200190565b60405180910390a3505050565b6111008261114d565b6040516001600160a01b038316907fbc7cd75a20ee27fd9adebab32041f755214dbc6bffa90cc0225b39da2e5c2d3b90600090a280511561114557610bbf82826111a9565b61056a61121f565b806001600160a01b03163b60000361117a5780604051634c9c8ce360e01b8152600401610a4a91906114c1565b60008051602061161c83398151915280546001600160a01b0319166001600160a01b0392909216919091179055565b6060600080846001600160a01b0316846040516111c69190611591565b600060405180830381855af49150503d8060008114611201576040519150601f19603f3d011682016040523d82523d6000602084013e611206565b606091505b509150915061121685838361123e565b95945050505050565b34156105c55760405163b398979f60e01b815260040160405180910390fd5b6060826112535761124e82611291565b610551565b815115801561126a57506001600160a01b0384163b155b1561128a5783604051639996b31560e01b8152600401610a4a91906114c1565b5080610551565b8051156112a15780518082602001fd5b604051630a12f52160e11b815260040160405180910390fd5b60005b838110156112d55781810151838201526020016112bd565b50506000910152565b600081518084526112f68160208601602086016112ba565b601f01601f19169290920160200192915050565b60208152600061055160208301846112de565b80356001600160a01b038116811461133457600080fd5b919050565b6000806040838503121561134c57600080fd5b6113558361131d565b946020939093013593505050565b60008060006060848603121561137857600080fd5b6113818461131d565b925061138f6020850161131d565b9150604084013590509250925092565b6000602082840312156113b157600080fd5b5035919050565b634e487b7160e01b600052604160045260246000fd5b600067ffffffffffffffff808411156113e9576113e96113b8565b604051601f8501601f19908116603f01168101908282118183101715611411576114116113b8565b8160405280935085815286868601111561142a57600080fd5b858560208301376000602087830101525050509392505050565b6000806040838503121561145757600080fd5b6114608361131d565b9150602083013567ffffffffffffffff81111561147c57600080fd5b8301601f8101851361148d57600080fd5b61149c858235602084016113ce565b9150509250929050565b6000602082840312156114b857600080fd5b6105518261131d565b6001600160a01b0391909116815260200190565b600080604083850312156114e857600080fd5b6114f18361131d565b91506114ff6020840161131d565b90509250929050565b600181811c9082168061151c57607f821691505b60208210810361153c57634e487b7160e01b600052602260045260246000fd5b50919050565b634e487b7160e01b600052601160045260246000fd5b808202811582820484141761052c5761052c611542565b60008261158c57634e487b7160e01b600052601260045260246000fd5b500490565b600082516115a38184602087016112ba565b9190910192915050565b8281526040602082015260006115c660408301846112de565b949350505050565b6001600160a01b039390931683526020830191909152604082015260600190565b60006020828403121561160157600080fd5b5051919050565b8082018082111561052c5761052c61154256fe360894a13ba1a3210667c828492db98dca3e2076cc3735a920a3ca505d382bbca2646970667358221220a7cb122f815fda86fb634563792db970350bec54149473058ff56429085dc2df64736f6c63430008140033",
  "linkReferences": {},
  "deployedLinkReferences": {}
}